:020000040800F2
:1000000000000220B18C0008F98C0008F98C00086F
:10001000F98C0008F98C0008F98C00080000000039
:10002000000000000000000000000000F98C000843
:10003000F98C000800000000F98C0008F98C000819
:1000400000000000000000000000000000000000B0
:1000500000000000000000000000000000000000A0
:100060000000000000000000000000000000000090
:100070000000000000000000000000000000000080
:100080000000000000000000000000000000000070
:100090000000000000000000000000000000000060
:1000A0000000000000000000000000000000000050
:1000B0000000000000000000000000000000000040
:1000C0000000000000000000000000000000000030
:1000D0000000000000000000000000000000000020
:1000E0000000000000000000000000000000000010
:1000F0000000000000000000000000000000000000
:1001000000000000000000000000000000000000EF
:1001100000000000000000000000000000000000DF
:1001200000000000000000000000000000000000CF
:1001300000000000000000000000000000000000BF
:1001400000000000000000000000000000000000AF
:10015000000000000000000000000000000000009F
:10016000000000000000000000000000000000008F
:10017000000000000000000000000000000000007F
:08018000000000000000000077
:100188000348044B834202D0034B03B1184770471E
:1001980060040020600400200000000005480649B3
:1001A8000B1AD90F01EBA301491002D0034B03B17D
:1001B8001847704760040020600400200000000019
:1001C80010B5064C237843B9FFF7DAFF044B13B197
:1001D8000448AFF300800123237010BD60040020A1
:1001E80000000000108D000808B5044B1BB104493D
:1001F8000448AFF30080BDE80840CFE700000000E6
:1002080064040020108D0008002301461A46184691
:1002180000F0D4B838B5084B084D5B1B9C1007D0CC
:10022800043B1D44013C55F804399847002CF9D18A
:10023800BDE8384008F06EBDF8910008F491000858
:1002480070B50D4E0D4D761BB61006D0002455F82E
:10025800043B01349847A642F9D1094E094D761B53
:1002680008F052FDB61006D0002455F8043B0134BE
:100278009847A642F9D170BDEC910008EC910008AE
:10028800F4910008EC910008844641EA000313F059
:1002980003036DD1403A41D351F8043B40F8043B85
:1002A80051F8043B40F8043B51F8043B40F8043B48
:1002B80051F8043B40F8043B51F8043B40F8043B38
:1002C80051F8043B40F8043B51F8043B40F8043B28
:1002D80051F8043B40F8043B51F8043B40F8043B18
:1002E80051F8043B40F8043B51F8043B40F8043B08
:1002F80051F8043B40F8043B51F8043B40F8043BF8
:1003080051F8043B40F8043B51F8043B40F8043BE7
:1003180051F8043B40F8043B403ABDD2303211D387
:1003280051F8043B40F8043B51F8043B40F8043BC7
:1003380051F8043B40F8043B51F8043B40F8043BB7
:10034800103AEDD20C3205D351F8043B40F8043B87
:10035800043AF9D2043208D0D2071CBF11F8013B85
:1003680000F8013B01D30B8803806046704700BF4B
:10037800082A13D38B078DD010F003038AD0C3F15A
:100388000403D21ADB071CBF11F8013B00F8013B3C
:1003980080D331F8023B20F8023B7BE7043AD9D3FB
:1003A800013A11F8013B00F8013BF9D20B780370D0
:1003B8004B7843708B7883706046704770B4184CE4
:1003C8002568D5F848411CB365681F2D25DC38B968
:1003D800AB1C0135656044F82310002070BC7047E1
:1003E80004EB850C0228CCF88820D4F888614FF0FB
:1003F800010202FA05F246EA0206C4F88861CCF85E
:100408000831E5D1D4F88C311343C4F88C31DFE7D7
:1004180005F5A674C5F84841D6E74FF0FF30DDE78B
:10042800E891000880B584B002AF78600B46FB7095
:100438000B4B009320237A680A490B4800F0E2FB33
:10044800094B0A4A0A490B4800F0ECFD094A2021E9
:10045800722007F0D3F9002318460837BD4680BD3F
:10046800E81C00209C040020A0040020683700201D
:1004780068670020C826002080B500AF07F0F4F9AF
:1004880007F042FA07F096FA07F066F8064A0749B5
:10049800074800F011F8074A2021702007F076F885
:1004A80007F0CAF8FCE700BF00000020E81C0020A5
:1004B800C81700202D04000880B5ADF5104DB4B064
:1004C80004AF07F1C00343F8B40C07F1C00343F8C5
:1004D800B81C07F1C00343F8BC2C07F1C003194648
:1004E80007F5104303F13403202251F8BC1C1846C9
:1004F800FFF7CAFE07F5104202F1340207F5104073
:1005080000F134002023802106F082FE07F5104315
:1005180003F1340307F5104202F1BC02136007F53A
:10052800104303F1BC031B68203307F5104202F1A6
:10053800B802136007F5104303F1B8031B68403392
:1005480007F5104202F1B402136007F5A04303F166
:1005580040032C3B07F5104202F1BC021168184613
:1005680000F00DFE07F5804303F140032C3B002209
:1005780007F5104101F1B8010968184600F04EFE70
:1005880007F501532C3B042207F5104101F1B8018E
:100598000968184600F090FF07F5435307F58142B4
:1005A80002F14002AC3BA2F1AC014FF48052184674
:1005B800FFF76AFE07F541532C3B184600F0AEFEE4
:1005C80007F541522C3A07F5A04101F140012C39B9
:1005D80007F58653AC3B184600F000FE07F5865336
:1005E800AC3B184600F088FF07F58653AC3B18462D
:1005F80001F013F807F501522C3A07F58651AC398A
:1006080007F58653AC3B184600F0A8FF07F586535C
:10061800AC3B184600F089FF07F58652AC3A07F163
:10062800C001AC3907F58653AC3B184601F04EF8CB
:1006380007F58653AC3B07F1C00210461A4607F58A
:10064800104303F1BC03196850F8B40C00F00FFB19
:1006580007F1C0031A4607F5104000F114004FF4E3
:10066800A46352F8B42C202106F0D2FD07F51042FD
:1006780002F1140207F1C003184607F501532C3B99
:10068800029307F5804303F140032C3B019307F1E4
:10069800C003AC3B009307F5104303F1B4031B6898
:1006A80007F5104101F1BC01096850F8B80C00F0D9
:1006B80015FB0023184607F51047C037BD4680BD17
:1006C80090B5ADF5454DBDB004AF07F5BC64A4F2D7
:1006D800D454206007F5BC60A0F5BB60016007F545
:1006E800BC61A1F2DC510A6007F5BC62A2F5BC62EC
:1006F8001360002307F5454202F1DE02138007F577
:10070800444303F1E40307F5454202F1D8021360BC
:1007180007F5454303F1D8031B68203307F5454225
:1007280002F1D402136007F5454303F1D4031B68B3
:10073800203307F5454202F1D002136007F545431F
:1007480003F1D0031B68203307F5454202F1CC02C0
:10075800136007F5454303F1CC031B68403307F5E5
:10076800454202F1C802136007F58B4202F16002AC
:10077800FC3A07F5454303F1F0031B68029307F5BC
:10078800575303F12003FC3B019307F5EA4303F1B8
:1007980060037C3B0093134607F5454202F1D00203
:1007A800126807F5454101F1D401096807F545408C
:1007B80000F1D800006800F028FB07F1E003D03B07
:1007C800184606F0ABFC07F1E003D03B202207F502
:1007D800454101F1D4010968184606F0AFFC07F558
:1007E800BC63A3F5BC6207F5BC63A3F2DC5107F157
:1007F800E003D03B12680968184606F09FFC07F131
:10080800E003D03B184606F0B1FC07F1E003D03B0B
:100818001A46402107F5454303F1CC03186806F052
:10082800B9FC602307F5454202F1D0021268402165
:1008380007F5454000F1C800006806F0E9FC07F537
:10084800054303F160037C3B07F5454202F1D802FA
:100858001168184600F093FC07F5EA4303F16003BA
:100868007C3B184600F05AFD07F5575303F1200367
:10087800FC3B184600F0B8FE07F58B4303F1600314
:10088800FC3B184600F0B0FE07F5454303F1DE03D4
:100898001A88531C07F5454101F1DE010B8007F565
:1008A800CA4303F160037C3B07F5454101F1C801E8
:1008B8000968184600F0D2FC07F5454303F1DE034A
:1008C8001B881A4607F5454303F1C8031968CA4847
:1008D80000F0C4FCC84A07F5CB4303F16003104697
:1008E800FC3B4FF480521946FFF7CEFC07F5AB43AB
:1008F80003F1600307F5CB4202F16002FC3BA2F171
:10090800FC014FF480521846FFF7BEFC07F5AA43D6
:1009180003F160037C3B184600F000FD07F5AA428E
:1009280002F160027C3A07F5054101F160017C396A
:1009380007F5175303F12003FC3B184600F04EFC63
:1009480007F5175303F12003FC3B184600F0D4FDCC
:1009580007F5175303F12003FC3B184600F05DFE32
:1009680007F5175303F12003FC3B184600F0DDFDA3
:1009780007F5175202F12002FC3A07F5AF51FC398E
:1009880007F5175303F12003FC3B184600F0C1FE9E
:1009980007F5175303F12003FC3B07F5BC62A2F2ED
:1009A800D4521946106800F000FF07F1E003D03B6D
:1009B800184606F0B3FB07F1E003D03B402207F5E9
:1009C800454101F1CC010968184606F0B7FB07F567
:1009D800BC63A3F2D45107F1E003D03B4FF440725B
:1009E8000968184606F0AAFB07F1E003D03B184651
:1009F80006F0BCFB07F1E003D03B07F5BC62A2F2AE
:100A0800D4501A462021006806F0C4FB07F5BC63E1
:100A1800A3F2D45207F5F073FC3B1168184601F0B5
:100A28004AFA07F5F073FC3B184600F060FF06F041
:100A3800E9FF07F5EA4202F160027C3A07F5F07136
:100A4800FC3907F5AA4303F160037C3B184600F024
:100A580097FC06F0E3FF07F5AA4303F160037C3B2C
:100A6800184600F074FC07F5CA4202F160027C3AAD
:100A780007F5AA4101F160017C3907F5AA4303F1A2
:100A880060037C3B184600F026FC07F5AA4303F1F7
:100A980060037C3B184600F005FC07F5AA4303F108
:100AA80060037C3B5549184600F0E6FC0346002BE2
:100AB80000D0E9E607F5575202F12002FC3A07F5A3
:100AC800F071FC3907F5BC63FC3B184600F0BEFD2D
:100AD80007F5BC63FC3B184600F09FFD07F5BC62B8
:100AE800FC3A07F5AF51FC3907F5AF53FC3B184604
:100AF80000F057FD07F5AF53FC3B184600F0FCFC2F
:100B080007F5AF53FC3B3E49184600F0BFFD0346CE
:100B1800002B00D0B8E607F58B4202F16002FC3AE0
:100B280007F5F071FC3907F5BC63FC3B184600F08B
:100B38008DFD07F5BC63FC3B184600F06EFD07F51C
:100B4800BC63FC3B184600F0D7FC07F5BC63FC3BD4
:100B58004FF4BA31184600F099FD0346002B00D037
:100B680092E607F5BC62FC3A07F5AF51FC3907F588
:100B7800AF53FC3B184600F0F1FC07F5175202F1A1
:100B88002002FC3A07F5AF51FC3907F5BC63FC3B82
:100B9800184600F0E1FD07F5454303F1C40318606A
:100BA80007F5454303F1C4031B68502B00D96BE6D6
:100BB80007F5BC63FC3B07F5AA4202F160027C3AE8
:100BC80007F5BC61A1F2D45107F5BC60A0F2D4507E
:100BD8000968006800F0B0F907F5BC63A3F5BB63CA
:100BE8001B6840F674121A600023184607F545473B
:100BF800E437BD4690BD00BF689B0020B2FF0100EE
:100C0800B273010080B588B002AFF860B9607A604D
:100C18003B6000237B6111E03A687B69D31A013B92
:100C28007A681A4439687B69CB1A03F67313F96832
:100C38000B4412781A707B6901337B617A693B68CF
:100C48009A42E9D3FB6803F674123B6A00933B6847
:100C5800B968F868FFF734FDBB681A683B681A443E
:100C6800BB681A60002318461837BD4680BD80B59A
:100C780086B000AFF860B9607A6000237B610AE053
:100C8800BA687B691A44F9687B690B4412781A7050
:100C98007B6901337B617B691F2BF1D9FB682033AA
:100CA800FB6000237B6111E07A6913469B001344C3
:100CB8009B011A46FB6898187B699B027A68134463
:100CC800194601F0B2FB7B6901337B617B69032B19
:100CD800EAD900BF00BF1837BD4680BD80B586B0D1
:100CE80000AFF860B9607A603B6000237B610AE07E
:100CF800BA687B691A44F9687B690B4412781A70E0
:100D08007B6901337B617B691F2BF1D9FB68203339
:100D1800FB6000237B610AE03A687B691A44F96842
:100D28007B690B4412781A707B6901337B617B699C
:100D38001F2BF1D9FB682033FB6000237B610AE09D
:100D48007A687B691A44F9687B690B4412781A70CF
:100D58007B6901337B617B691F2BF1D9FB682033E9
:100D6800FB6000237B6111E07A6913465B00134442
:100D78005B011A46FB6898187B699B027A6A1344E0
:100D8800194601F076F97B6901337B617B69032B96
:100D9800EAD9FB6803F5C073FB6000237B6111E0AF
:100DA8007A6913465B0013445B011A46FB6898187E
:100DB8007B699B02BA6A1344194601F05AF97B69A8
:100DC80001337B617B69032BEAD9FB6803F5C073A8
:100DD800FB6000237B6110E07B694FF4D07202FB5B
:100DE80003F3FA68D0187B699B023A6A13441946E0
:100DF80001F09CFB7B6901337B617B69032BEBD999
:100E080000BF00BF1837BD4680BD80B586B000AFB3
:100E1800F860B9607A603B6000237B610AE0BA6AD7
:100E28007B691A44F9687B690B4412781A707B69EC
:100E380001337B617B691F2BF1D9BB6A2033BB620D
:100E480000237B610AE0BA6A7B691A4479687B6986
:100E58000B4412781A707B6901337B617B691F2B05
:100E6800F1D9BB6A2033BB6200237B610AE0BA6A0E
:100E78007B691A44B9687B690B4412781A707B69DC
:100E880001337B617B691F2BF1D9BB6A2033BB62BD
:100E980000237B6111E07B699B023A6AD0187A696A
:100EA80013465B0013445B011A46BB6A1344194698
:100EB80001F092F97B6901337B617B69032BEAD9E5
:100EC800BB6A03F5C073BB6200237B6111E07B69D9
:100ED8009B027A6AD0187A6913465B0013445B0157
:100EE8001A46BB6A1344194601F076F97B69013347
:100EF8007B617B69032BEAD9BB6A03F5C073BB62CC
:100F080000237B6110E07B699B023A68D0187B69FB
:100F18004FF4D07202FB03F3BA6A1344194601F086
:100F2800C5FC7B6901337B617B69032BEBD900BF6F
:100F380000BF1837BD4680BD80B588B000AFF860E7
:100F4800B9607A603B600023FB610AE0BA68FB691C
:100F58001A44F968FB690B4412781A70FB6901336B
:100F6800FB61FB691F2BF1D9FB682033FB60002371
:100F7800FB6111E0FA691346DB0013449B011A4632
:100F8800FB689818FB699B027A681344194601F0BC
:100F980034FFFB690133FB61FB69032BEAD9FB686A
:100FA80003F51063FB600023FB6107E0FA68FB6947
:100FB800134400221A70FB690133FB61FB69532B50
:100FC800F4D900237B610023FB6123E00023BB618C
:100FD80013E03B68FA691102BA690A4453F82230EF
:100FE800002B07D07B695A1C7A61FA681344BA69E6
:100FF800D2B21A70BB690133BB61BB69FF2BE8D958
:10100800FB695033FA6813447A69D2B21A70FB69E3
:101018000133FB61FB69032BD8D900BF00BF203720
:10102800BD4680BD80B588B000AFF860B9607A6011
:101038003B600023FB610AE03A68FB691A44F968DF
:10104800FB690B4412781A70FB690133FB61FB6979
:101058001F2BF1D93B6820333B600023FB6111E073
:10106800FB699B02BA68D018FA691346DB0013447F
:101078009B011A463B681344194601F09CFFFB6923
:101088000133FB61FB69032BEAD93B6803F5106365
:101098003B6000237B610023FB6157E00023BB61B9
:1010A8000AE07B68FA691102BA690A44002143F828
:1010B8002210BB690133BB61BB69FF2BF1D9FB6906
:1010C80050333A6813441B781A467B69934206D812
:1010D800FB6950333A6813441B78502B01D901231C
:1010E80049E07B69BB611FE0BA697B699A420CD908
:1010F8003A68BB6913441A78BB69013B39680B44E9
:101108001B789A4201D8012335E03A68BB69134439
:101118001B7819467B68FA6912020A44012143F8D0
:101128002210BB690133BB61FB6950333A68134431
:101138001B781A46BB699342D6D3FB6950333A6889
:1011480013441B787B61FB690133FB61FB69032B4B
:10115800A4D97B69BB610AE03A68BB6913441B7870
:10116800002B01D0012306E0BB690133BB61BB69D9
:101178004F2BF1D9002318462037BD4680BD80B5D6
:1011880084B000AF786039600023FB601EE0002364
:10119800BB6015E0FB681B037A681A44BB689B02B6
:1011A800D018FB689BB21B029AB2BB689BB213446F
:1011B8009BB21A46396800F0DDFCBB680133BB609E
:1011C800BB68032BE6D9FB680133FB60FB68032B84
:1011D800DDD900BF00BF1037BD4680BD80B586B0E1
:1011E80000AFF860B9607A6000237B610EE07B692C
:1011F8009B02FA68D0187B691B03BA6813447A68A3
:10120800194600F0DDF87B6901337B617B69032BAC
:10121800EDD900BF00BF1837BD4680BD80B586B088
:1012280000AFF860B9601346FB8000237B610DE0D6
:101238007B699B02FA68D018FB885A1CFA801A4608
:10124800B96800F09BFD7B6901337B617B69032BE7
:10125800EED900BF00BF1837BD4680BD80B586B047
:1012680000AFF860B9601346FB8000237B6111E092
:101278007B699B02FA68D018FB889B009AB27B694D
:101288009BB213449BB21A46B96800F0DCFD7B6937
:1012980001337B617B69032BEAD900BF00BF183794
:1012A800BD4680BD80B584B000AF78600023FB6088
:1012B80009E0FB689B027A681344184600F097FA25
:1012C800FB680133FB60FB68032BF2D900BF00BF4A
:1012D8001037BD4680BD80B586B000AFF860B960F4
:1012E8007A6000237B6111E07B699B02FA68D01861
:1012F8007B699B02BA68D1187B699B027A681344A0
:101308001A4600F0B0FA7B6901337B617B69032BD5
:10131800EAD900BF00BF1837BD4680BD80B584B08C
:1013280000AF78600023FB6009E0FB689B027A68E5
:101338001344184600F0DBFAFB680133FB60FB68D6
:10134800032BF2D900BF00BF1037BD4680BD80B562
:1013580084B000AF78600023FB6009E0FB689B0263
:101368007A681344184600F0CEFAFB680133FB6034
:10137800FB68032BF2D900BF00BF1037BD4680BD04
:1013880080B586B000AFF860B9607A6000237B61F1
:101398000EE07B699B02FA68D0187B699B027A6829
:1013A80013441A46B96800F0BAFA7B6901337B61C5
:1013B8007B69032BEDD900BF00BF1837BD4680BD40
:1013C80080B5ADF5836D00AF07F58363A3F20C43D9
:1013D800186007F58363A3F58263196007F58363D3
:1013E800A3F214431A6007F58363A3F582631968AF
:1013F80007F58363A3F214431A6807F58363A3F21E
:101408000C43186800F08BFA0123C7F8143429E05C
:1014180007F58363A3F58262D7F814349B02126838
:10142800D11807F58363A3F21442D7F814349B024A
:1014380012681A4407F11403184600F070FA07F10D
:10144800140207F58363A3F20C4107F58363A3F243
:101458000C430968186800F006FAD7F81434013309
:10146800C7F81434D7F81434032BD1D900BF00BF00
:1014780007F58367BD4680BD80B584B000AF78604E
:1014880039600023FB600FE0FB689B027A68134415
:101498003968184600F0F0FA0346002B01D0012302
:1014A80006E0FB680133FB60FB68032BECD90023E3
:1014B80018461037BD4680BD80B586B000AFF860CD
:1014C800B9601346FB8000237B610DE07B699B02BA
:1014D800FA68D018FB885A1CFA801A46B96800F0D6
:1014E8004DFC7B6901337B617B69032BEED900BF1F
:1014F80000BF1837BD4680BD80B584B000AF7860A6
:101508000023FB6009E0FB689B027A6813441846D5
:1015180000F06DF9FB680133FB60FB68032BF2D91F
:1015280000BF00BF1037BD4680BD80B584B000AF96
:1015380078600023FB6009E0FB689B027A6813442B
:10154800184600F072F9FB680133FB60FB68032B57
:10155800F2D900BF00BF1037BD4680BD80B586B048
:1015680000AFF860B9607A6000237B6111E07B69A5
:101578009B02FA68D0187B699B02BA68D1187B690C
:101588009B027A6813441A4600F06DF97B690133AF
:101598007B617B69032BEAD900BF00BF1837BD46C2
:1015A80080BD80B586B000AFF860B9607A6000236E
:1015B8007B6111E07B699B02FA68D0187B699B020A
:1015C800BA68D1187B699B027A6813441A4600F0FE
:1015D8006CF97B6901337B617B69032BEAD900BF16
:1015E80000BF1837BD4680BD80B584B000AF7860B5
:1015F8000023FB6009E0FB689B027A6813441846E5
:1016080000F075F9FB680133FB60FB68032BF2D926
:1016180000BF00BF1037BD4680BD80B584B000AFA5
:1016280078600023FB6009E0FB689B027A6813443A
:10163800184600F068F9FB680133FB60FB68032B70
:10164800F2D900BF00BF1037BD4680BD80B586B057
:1016580000AFF860B9607A6000237B610EE07B69B7
:101668009B02FA68D0187B699B027A6813441A4671
:10167800B96800F054F97B6901337B617B69032BFE
:10168800EDD900BF00BF1837BD4680BD80B584B016
:1016980000AF786039600023FB600FE0FB689B02B5
:1016A8007A6813443968184600F0E6F90346002BB7
:1016B80001D0012306E0FB680133FB60FB68032BC4
:1016C800ECD9002318461037BD4680BD80B586B0DA
:1016D80000AFF860B9607A6000237B6111E07B6934
:1016E8009B02FA68D0187B699B02BA68D1187B699B
:1016F8009B027A6813441A4600F047F97B69013364
:101708007B617B69032BEAD900BF00BF1837BD4650
:1017180080BD80B586B000AFF860B9607A600023FC
:101728007B6111E07B699B02FA68D0187B699B0298
:10173800BA68D1187B699B027A6813441A4600F08C
:1017480048F97B6901337B617B69032BEAD900BFC8
:1017580000BF1837BD4680BD80B586B000AFF860C1
:10176800B9607A6000233B6100237B6115E07B69E7
:101778009B02FA68D0187B699B02BA68D1187B690A
:101788009B027A6813441A4600F047F902463B69FF
:1017980013443B617B6901337B617B69032BE6D989
:1017A8003B6918461837BD4680BD80B584B000AF88
:1017B800786039600023FB6011E0FA6813465B002B
:1017C80013449B011A467B689818FB689B023A6889
:1017D8001344194601F060FDFB680133FB60FB68A8
:1017E800032BEAD900BF00BF1037BD4680BD80B5C6
:1017F80084B000AF78600023FB600EE07B68FA6875
:1018080053F82230184601F04AFF01467B68FA680F
:1018180043F82210FB680133FB60FB68FF2BEDD90E
:1018280000BF00BF1037BD4680BD80B584B000AF93
:1018380078600023FB600EE07B68FA6853F822307A
:10184800184601F047FF01467B68FA6843F8221002
:10185800FB680133FB60FB68FF2BEDD900BF00BFBD
:101868001037BD4680BD80B487B000AFF860B9605E
:101878007A6000237B610FE0BB687A6953F8222005
:101888007B68796953F82130D118FB687A6943F885
:1018980022107B6901337B617B69FF2BECD900BF88
:1018A80000BF1C37BD4680BC704780B487B000AF0E
:1018B800F860B9607A6000237B610FE0BB687A69E1
:1018C80053F822207B68796953F82130D11AFB68D4
:1018D8007A6943F822107B6901337B617B69FF2BAE
:1018E800ECD900BF00BF1C37BD4680BC704780B52F
:1018F80082B000AF78607B68184601F061FD00BFD8
:101908000837BD4680BD80B582B000AF78607B687F
:10191800184601F0C1FD00BF0837BD4680BD2DE95E
:10192800B04F86B000AFF860B9607A6000237B6181
:1019380022E0BB687A6953F82230DA179846914654
:101948007B687A6953F82230DA179A4693460AFB7D
:1019580009F208FB0BF31344A8FB0A452B441D4668
:101968002046294601F052FE0146FB687A6943F891
:1019780022107B6901337B617B69FF2BD9D900BFBA
:1019880000BF1837BD46BDE8B08F80B586B000AF40
:10199800F860B9607A6000237B6112E07B699B0084
:1019A800BA68D0187B687A6953F82230194601F072
:1019B800A5FE0146FB687A6943F822107B6901336A
:1019C8007B617B69FF2BE9D900BF00BF1837BD4693
:1019D80080BD80B586B000AFF860B9607A6000233A
:1019E8007B6112E07B699B00BA68D0187B687A69D2
:1019F80053F82230194601F097FE0146FB687A69D0
:101A080043F822107B6901337B617B69FF2BE9D99D
:101A180000BF00BF1837BD4680BD80B586B000AF97
:101A2800F860B9607A6000233B6100237B611BE0AA
:101A3800BB687A6953F822007B687A6953F82230C8
:101A4800194601F0ABFE03461946FB687A6943F86C
:101A58002210FB687A6953F822301A463B6913440E
:101A68003B617B6901337B617B69FF2BE0D93B6973
:101A780018461837BD4680BD80B485B000AF786081
:101A880039603B68164A934201DD012322E00023B6
:101A9800FB601BE07B68FA6853F82230DB17BB60F9
:101AA8007B68FA6853F822207B68F96853F821307C
:101AB8005900BB680B40D31ABB60BA683B689A42AE
:101AC80001DB012306E0FB680133FB60FB68FF2BA9
:101AD800E0D9002318461437BD4680BC704700BFC4
:101AE80000FC0F0080B489B000AFF860B9607A607C
:101AF8003B600023BB61BB69FB612AE0BB695A1CE0
:101B0800BA617A6813441B787B61BB695A1CBA6155
:101B18007A6813441B781B027A6913437B61BB699B
:101B28005A1CBA617A6813441B781B047A691343F8
:101B38007B617B69C3F316037B617B690C4A934223
:101B480007D8FB695A1CFA619B00FA6813447A6942
:101B58001A60FA69BB689A4204D2BB6903333A68CF
:101B68009A42CBD2FB6918462437BD4680BC7047E1
:101B780000E07F0080B5ADF5886D00AF07F588639C
:101B8800A3F23443186007F58863A3F587631960E7
:101B980007F58863A3F23A431A804FF45273C7F8E3
:101BA800343407F58863A3F23A431A8807F5886343
:101BB800A3F5876307F11000196805F067FB07F1C3
:101BC800100207F1E4030521184605F097FA07F516
:101BD8008863A3F23443186807F1E402D7F8343471
:101BE8004FF48071FFF77EFFC7F8380459E0D7F843
:101BF8003424314BA3FB021359080B465B000B44FA
:101C0800D31AC7F830340023C7F83C341AE0D7F8A1
:101C18003424D7F83034D21AD7F83C34134407F5B3
:101C28008862A2F55772D15C07F58863A3F55772ED
:101C3800D7F83C3413440A461A70D7F83C340133B9
:101C4800C7F83C34D7F83C24D7F830349A42DED36E
:101C580007F1E402D7F83034134407F110020121E8
:101C6800184605F04BFAD7F83034A833C7F834349F
:101C780007F58863A3F234431A68D7F838349B0011
:101C8800D018D7F83834C3F5807107F1E402D7F8D3
:101C98003434FFF727FF0246D7F838341344C7F81F
:101CA8003834D7F83834FF2BA1D900BF00BF07F567
:101CB8008867BD4680BD00BFABAAAAAA80B489B018
:101CC80000AFF860B9607A603B600023BB61BB6914
:101CD800FB6145E07A68BB6913441B7803F00F0386
:101CE8007B61BB695A1CBA617A6813441B781B096B
:101CF800DBB23B617B690E2B15D87B69CD2202FBD9
:101D080003F39A0A13469B0013447A69D31A7B613A
:101D18007B69C3F10201FB695A1CFA619B00FA68EE
:101D280013440A461A603B690E2B19D8FA69BB6836
:101D38009A4215D23B69CD2202FB03F39A0A134655
:101D48009B0013443A69D31A3B613B69C3F1020112
:101D5800FB695A1CFA619B00FA6813440A461A6028
:101D6800FA69BB689A4203D2BA693B689A42B1D30E
:101D7800FB6918462437BD4680BC704780B5DCB087
:101D880000AF07F5B873A3F5B273186007F5B87319
:101D9800A3F5B473196007F5B873A3F5B5731A8082
:101DA8008823C7F8683107F5B873A3F5B5731A889F
:101DB80007F5B873A3F5B47307F11000196805F0B7
:101DC8008AFA07F1100207F1E0030121184605F02D
:101DD8000FFA07F5B873A3F5B273186807F1E002B4
:101DE800D7F868314FF48071FFF768FFC7F86C01C6
:101DF8001FE007F1100207F1E0030121184605F082
:101E0800F7F907F5B873A3F5B2731A68D7F86C3108
:101E18009B00D018D7F86C31C3F5807107F1E00248
:101E28008823FFF74BFF0246D7F86C311344C7F8F5
:101E38006C31D7F86C31FF2BDBD900BF00BF07F539
:101E4800B877BD4680BD80B5ADF5627D00AF07F5BA
:101E58006273A3F55F73186007F56273A3F5607387
:101E6800196007F56273A3F282331A8007F562736B
:101E7800A3F282331A8807F56273A3F5607307F13A
:101E88001000196805F027FA07F1100207F1E003BE
:101E98000521184605F0ACF907F1E00207F5627371
:101EA800A3F55F731146186801F085F800BF07F5C0
:101EB8006277BD4680BD2DE9B04FDEB000AF07F5B3
:101EC800BC73A3F5BA73186007F5BC73A3F5BC73AC
:101ED800196007F10803184605F020F907F5BC73E7
:101EE800A3F5BC7307F108002022196805F026F94C
:101EF80007F10803184605F039F907F1080207F158
:101F0800DC030121184605F073F94FF000024FF089
:101F18000003C7E95A230023C7F8743127E007F103
:101F2800DC02D7F8743113441B78DBB200229846E0
:101F38009146D7F87431DB00A3F12001C3F12002E8
:101F480009FA03F508FA01F10D4328FA02F21543DC
:101F580008FA03F4D7E95A2342EA040A43EA050BCC
:101F6800C7E95AABD7F874310133C7F87431D7F8D9
:101F78007431072BD3D90823C7F870310023C7F869
:101F880074310EE007F5BC73A3F5BA731B68D7F874
:101F98007421002143F82210D7F874310133C7F8AF
:101FA8007431D7F87431FF2BECD9D923C7F87431C1
:101FB80054E0D7F87031872B0AD907F1080207F1E6
:101FC800DC030121184605F013F90023C7F8703126
:101FD800D7F870315A1CC7F8702103F5BC733B441D
:101FE80013F89C3CC7F86431D7F86421D7F87431EA
:101FF8009A42DED807F5BC73A3F5BA731B68D7F805
:10200800642153F8221007F5BC73A3F5BA731B6853
:10201800D7F8742143F82210D7F8683103F0010388
:102028005B00C3F10103194607F5BC73A3F5BA7346
:102038001B68D7F8642143F82210D7E95A014FF0FA
:1020480000024FF00003420842EAC1724B08C7E998
:102058005A23D7F874310133C7F87431D7F874317B
:10206800FF2BA6D900BF00BF07F5BC77BD46BDE86A
:10207800B08F80B487B000AF7860396000237B618F
:10208800A0E07B69DA003B6853F82230DBB2C3F189
:102098000203DBB23B737B69DB005A1C3B6853F8D5
:1020A8002230DBB2C3F10203DBB27B737B69DB0056
:1020B8009A1C3B6853F82230DBB2C3F10203DBB24F
:1020C800BB737B69DB00DA1C3B6853F82230DBB258
:1020D800C3F10203DBB2FB737B69DB001A1D3B68AB
:1020E80053F82230DBB2C3F10203DBB23B747B69E5
:1020F800DB005A1D3B6853F82230DBB2C3F1020300
:10210800DBB27B747B69DB009A1D3B6853F8223095
:10211800DBB2C3F10203DBB2BB747B69DB00DA1DFF
:102128003B6853F82230DBB2C3F10203DBB2FB7425
:102138003B7B5AB27B7BDB005BB213435AB2BB7B5F
:102148009B015BB2134359B27A6913465B0013448F
:102158007A681344CAB21A70BB7B9B08DBB25AB2C6
:10216800FB7B5B005BB213435AB23B7C1B015BB247
:1021780013435AB27B7CDB015BB2134359B27A69D1
:1021880013465B00134401337A681344CAB21A70C9
:102198007B7C5B08DBB25AB2BB7C9B005BB213430F
:1021A8005AB2FB7C5B015BB2134359B27A6913469E
:1021B8005B00134402337A681344CAB21A707B690D
:1021C80001337B617B691F2B7FF65BAF00BF00BFCC
:1021D8001C37BD4680BC704780B485B000AF7860BE
:1021E80039600023FB6016E1FA6813465B0013446C
:1021F8003A6813441B781946FB68DA0001F00701B6
:102208007B6843F82210FA6813465B0013443A6867
:1022180013441B78DB08DBB21946FB68DB005A1C49
:1022280001F007017B6843F82210FA6813465B0047
:1022380013443A6813441B789B09DBB21946FA68C1
:1022480013465B00134401333A6813441B789B0020
:102258000B43FA68D200023203F007017B6843F8A7
:102268002210FA6813465B00134401333A6813449A
:102278001B785B08DBB21946FB68DB00DA1C01F04F
:1022880007017B6843F82210FA6813465B00134481
:1022980001333A6813441B781B09DBB21946FB6803
:1022A800DB001A1D01F007017B6843F82210FA6869
:1022B80013465B00134401333A6813441B78DB0967
:1022C800DBB21946FA6813465B00134402333A68D6
:1022D80013441B785B000B43FA68D200053203F005
:1022E80007017B6843F82210FA6813465B00134421
:1022F80002333A6813441B789B08DBB21946FB6823
:10230800DB009A1D01F007017B6843F82210FA6888
:1023180013465B00134402333A6813441B785B0985
:10232800DBB21946FB68DB00DA1D01F007017B68A8
:1023380043F82210FB68DA007B6853F82230FA6809
:10234800D200C3F102017B6843F82210FB68DB006E
:102358005A1C7B6853F82230FA68D2000132C3F164
:1023680002017B6843F82210FB68DB009A1C7B683B
:1023780053F82230FA68D2000232C3F102017B68B6
:1023880043F82210FB68DB00DA1C7B6853F8223024
:10239800FA68D2000332C3F102017B6843F82210C5
:1023A800FB68DB001A1D7B6853F82230FA68D200FC
:1023B8000432C3F102017B6843F82210FB68DB009A
:1023C8005A1D7B6853F82230FA68D2000532C3F1EF
:1023D80002017B6843F82210FB68DB009A1D7B68CA
:1023E80053F82230FA68D2000632C3F102017B6842
:1023F80043F82210FB68DB00DA1D7B6853F82230B3
:10240800FA68D2000732C3F102017B6843F8221050
:10241800FB680133FB60FB681F2B7FF6E5AE00BF4E
:1024280000BF1437BD4680BC704780B485B000AF8C
:10243800786039600023FB606FE0FB689A003B68B6
:1024480053F82210FA6813469B0013447A68134421
:10245800CAB21A70FB689A003B6853F822301B1204
:102468005AB2FB689B00591C3B6853F821309B000B
:102478005BB2134359B2FA6813469B001344013305
:102488007A681344CAB21A70FB689B005A1C3B68EE
:1024980053F822309B115AB2FB689B00991C3B6889
:1024A80053F821301B015BB2134359B2FA68134643
:1024B8009B00134402337A681344CAB21A70FB684B
:1024C8009B009A1C3B6853F822301B115AB2FB68D8
:1024D8009B00D91C3B6853F821309B015BB2134326
:1024E80059B2FA6813469B00134403337A681344BD
:1024F800CAB21A70FB689B00DA1C3B6853F822309A
:102508009910FA6813469B00134404337A681344FD
:10251800CAB21A70FB680133FB60FB683F2B8CD989
:1025280000BF00BF1437BD4680BC704780B48DB073
:1025380000AF786039600023FB62ADE1FB6ADA0026
:102548003B6853F82230C3F58053FB60FB6ADB001D
:102558005A1C3B6853F82230C3F580533B61FB6A31
:10256800DB009A1C3B6853F82230C3F580537B612B
:10257800FB6ADB00DA1C3B6853F82230C3F5805352
:10258800BB61FB6ADB001A1D3B6853F82230C3F5B8
:102598008053FB61FB6ADB005A1D3B6853F822300D
:1025A800C3F580533B62FB6ADB009A1D3B6853F816
:1025B8002230C3F580537B62FB6ADB00DA1D3B687F
:1025C80053F82230C3F58053BB62F968FA6A1346A0
:1025D8005B0013449B0013447A681344CAB21A7010
:1025E800FB68190AFA6A13465B0013449B001344FC
:1025F80001337A681344CAB21A70FA6A13465B0048
:1026080013449B00134401337A68134418783B69D8
:10261800DBB25B01D9B2FA6A13465B0013449B0034
:10262800134401337A68134440EA0102D2B21A70A3
:102638003B69D908FA6A13465B0013449B001344AC
:1026480002337A681344CAB21A703B69D90AFA6A23
:1026580013465B0013449B00134403337A68134406
:10266800CAB21A70FA6A13465B0013449B001344FB
:1026780003337A68134418787B69DBB29B00D9B2BC
:10268800FA6A13465B0013449B00134403337A68C9
:10269800134440EA0102D2B21A707B699909FA6AB6
:1026A80013465B0013449B00134404337A681344B5
:1026B800CAB21A70FA6A13465B0013449B001344AB
:1026C80004337A6813441878BB69DBB2DB01D9B2EA
:1026D800FA6A13465B0013449B00134404337A6878
:1026E800134440EA0102D2B21A70BB695908FA6A67
:1026F80013465B0013449B00134405337A68134464
:10270800CAB21A70BB69590AFA6A13465B001344C5
:102718009B00134406337A681344CAB21A70FA6AE3
:1027280013465B0013449B00134406337A68134432
:102738001878FB69DBB21B01D9B2FA6A13465B0051
:1027480013449B00134406337A68134440EA010299
:10275800D2B21A70FB691909FA6A13465B0013446E
:102768009B00134407337A681344CAB21A70FB6992
:10277800190BFA6A13465B0013449B001344083391
:102788007A681344CAB21A70FA6A13465B00134493
:102798009B00134408337A68134418783B6ADBB209
:1027A8005B00D9B2FA6A13465B0013449B001344DA
:1027B80008337A68134440EA0102D2B21A703B6ABD
:1027C800D909FA6A13465B0013449B001344093382
:1027D8007A681344CAB21A70FA6A13465B00134443
:1027E8009B00134409337A68134418787B6ADBB278
:1027F8009B01D9B2FA6A13465B0013449B00134449
:1028080009337A68134440EA0102D2B21A707B6A2B
:102818009908FA6A13465B0013449B0013440A3371
:102828007A681344CAB21A707B6A990AFA6A13461C
:102838005B0013449B0013440B337A681344CAB2F9
:102848001A70FA6A13465B0013449B0013440B3357
:102858007A6813441878BB6ADBB2DB00D9B2FA6A2B
:1028680013465B0013449B0013440B337A681344EC
:1028780040EA0102D2B21A70BB6A5909FA6A1346D1
:102888005B0013449B0013440C337A681344CAB2A8
:102898001A70FB6A0133FB62FB6A1F2B7FF64EAE90
:1028A80000BF00BF3437BD4680BC704780B485B0D8
:1028B80000AF786039600023FB6094E2FA68134641
:1028C8005B0013449B0013443A6813441978FB686F
:1028D800DA007B6843F82210FB68DA007B6853F85B
:1028E80022301946FA6813465B0013449B001344D0
:1028F80001333A6813441B781B021943FB68DA005A
:102908007B6843F82210FB68DA007B6853F82230B2
:10291800FA68D200C3F30C017B6843F82210FA6806
:1029280013465B0013449B00134401333A68134475
:102938001B785B09D9B2FB68DB005A1C7B6843F83B
:102948002210FB68DB005A1C7B6853F822301946BA
:10295800FA6813465B0013449B00134402333A6839
:1029680013441B78DB001943FB68DB005A1C7B68A7
:1029780043F82210FB68DB005A1C7B6853F82230AE
:102988001946FA6813465B0013449B00134403334B
:102998003A6813441B78DB021943FB68DB005A1CB6
:1029A8007B6843F82210FB68DB005A1C7B6853F8ED
:1029B8002230FA68D2000132C3F30C017B6843F875
:1029C8002210FA6813465B0013449B001344033338
:1029D8003A6813441B789B08D9B2FB68DB009A1C41
:1029E8007B6843F82210FB68DB009A1C7B6853F86D
:1029F80022301946FA6813465B0013449B001344BF
:102A080004333A6813441B789B011943FB68DB00C5
:102A18009A1C7B6843F82210FB68DB009A1C7B68D1
:102A280053F82230FA68D2000232C3F30C017B68F3
:102A380043F82210FA6813465B0013449B001344C2
:102A480004333A6813441B78DB09D9B2FB68DB000E
:102A5800DA1C7B6843F82210FB68DB00DA1C7B6811
:102A680053F822301946FA6813465B0013449B005A
:102A7800134405333A6813441B785B001943FB6819
:102A8800DB00DA1C7B6843F82210FB68DB00DA1CE9
:102A98007B6853F822301946FA6813465B001344E2
:102AA8009B00134406333A6813441B785B021943AE
:102AB800FB68DB00DA1C7B6843F82210FB68DB004C
:102AC800DA1C7B6853F82230FA68D2000332C3F369
:102AD8000C017B6843F82210FA6813465B00134424
:102AE8009B00134406333A6813441B781B09D9B278
:102AF800FB68DB001A1D7B6843F82210FB68DB00CB
:102B08001A1D7B6853F822301946FA6813465B0091
:102B180013449B00134407333A6813441B781B0182
:102B28001943FB68DB001A1D7B6843F82210FB6819
:102B3800DB001A1D7B6853F822301946FA681346E1
:102B48005B0013449B00134408333A6813441B7812
:102B58001B031943FB68DB001A1D7B6843F822102E
:102B6800FB68DB001A1D7B6853F82230FA68D20034
:102B78000432C3F30C017B6843F82210FA68134649
:102B88005B0013449B00134408333A6813441B78D2
:102B98005B08D9B2FB68DB005A1D7B6843F822103A
:102BA800FB68DB005A1D7B6853F822301946FA6827
:102BB80013465B0013449B00134409333A681344DB
:102BC8001B78DB011943FB68DB005A1D7B6843F85F
:102BD8002210FB68DB005A1D7B6853F82230FA6824
:102BE800D2000532C3F30C017B6843F82210FA685F
:102BF80013465B0013449B00134409333A6813449B
:102C08001B789B09D9B2FB68DB009A1D7B6843F8E7
:102C18002210FB68DB009A1D7B6853F822301946A6
:102C2800FA6813465B0013449B0013440A333A685E
:102C380013441B789B001943FB68DB009A1D7B68D3
:102C480043F82210FB68DB009A1D7B6853F822309A
:102C58001946FA6813465B0013449B0013440B3370
:102C68003A6813441B789B021943FB68DB009A1DE2
:102C78007B6843F82210FB68DB009A1D7B6853F8D9
:102C88002230FA68D2000632C3F30C017B6843F89D
:102C98002210FA6813465B0013449B0013440B335D
:102CA8003A6813441B78DB08D9B2FB68DB00DA1DED
:102CB8007B6843F82210FB68DB00DA1D7B6853F859
:102CC80022301946FA6813465B0013449B001344EC
:102CD8000C333A6813441B785B011943FB68DB002B
:102CE800DA1D7B6843F82210FB68DB00DA1D7B687D
:102CF80053F82230FA68D2000732C3F30C017B681C
:102D080043F82210FB68DA007B6853F82230FA682F
:102D1800D200C3F580517B6843F82210FB68DB00C2
:102D28005A1C7B6853F82230FA68D2000132C3F586
:102D380080517B6843F82210FB68DB009A1C7B6893
:102D480053F82230FA68D2000232C3F580517B680A
:102D580043F82210FB68DB00DA1C7B6853F822304A
:102D6800FA68D2000332C3F580517B6843F8221019
:102D7800FB68DB001A1D7B6853F82230FA68D20022
:102D88000432C3F580517B6843F82210FB68DB00EE
:102D98005A1D7B6853F82230FA68D2000532C3F511
:102DA80080517B6843F82210FB68DB009A1D7B6822
:102DB80053F82230FA68D2000632C3F580517B6896
:102DC80043F82210FB68DB00DA1D7B6853F82230D9
:102DD800FA68D2000732C3F580517B6843F82210A5
:102DE800FB680133FB60FB681F2B7FF667AD00BFF4
:102DF80000BF1437BD4680BC704780B489B000AFAF
:102E0800786039600023FB61CBE0FB699A003B687E
:102E180053F82230C3F50033FB60FB699B005A1C52
:102E28003B6853F82230C3F500333B61FB699B00D4
:102E38009A1C3B6853F82230C3F500337B61FB6969
:102E48009B00DA1C3B6853F82230C3F50033BB61A2
:102E5800F968FA691346DB0013447A681344CAB266
:102E68001A70FB68190AFA691346DB001344013328
:102E78007A681344CAB21A70FB68190CFA691346C7
:102E8800DB00134402337A681344CAB21A70FA6931
:102E98001346DB00134402337A68134418783B69FD
:102EA800DBB29B00D9B2FA691346DB001344023344
:102EB8007A68134440EA0102D2B21A703B69990950
:102EC800FA691346DB00134403337A681344CAB221
:102ED8001A703B69990BFA691346DB0013440433F3
:102EE8007A681344CAB21A70FA691346DB001344AD
:102EF80004337A68134418787B69DBB21B01D9B2B2
:102F0800FA691346DB00134404337A68134440EA31
:102F18000102D2B21A707B691909FA691346DB00FB
:102F2800134405337A681344CAB21A707B69190BC3
:102F3800FA691346DB00134406337A681344CAB2AD
:102F48001A70FA691346DB00134406337A6813448F
:102F58001878BB69DBB29B01D9B2FA691346DB006A
:102F6800134406337A68134440EA0102D2B21A7055
:102F7800BB699908FA691346DB00134407337A687A
:102F88001344CAB21A70BB69990AFA691346DB007E
:102F9800134408337A681344CAB21A70FB690133C0
:102FA800FB61FB693F2B7FF630AF00BF00BF2437C2
:102FB800BD4680BC704780B485B000AF786039608A
:102FC8000023FB605EE1FA681346DB0013443A68AD
:102FD80013441978FB689A007B6843F82210FB6851
:102FE8009A007B6853F822301946FA681346DB00CA
:102FF800134401333A6813441B781B021943FB68D6
:103008009A007B6843F82210FB689A007B6853F8A3
:1030180022301946FA681346DB00134402333A6833
:1030280013441B781B041943FB689A007B6843F818
:103038002210FB689A007B6853F82230FA689200E5
:10304800C3F311017B6843F82210FA681346DB00CA
:10305800134402333A6813441B789B08D9B2FB68BF
:103068009B005A1C7B6843F82210FB689B005A1C83
:103078007B6853F822301946FA681346DB0013447C
:1030880003333A6813441B789B011943FB689B0080
:103098005A1C7B6843F82210FB689B005A1C7B680B
:1030A80053F822301946FA681346DB0013440433F8
:1030B8003A6813441B789B031943FB689B005A1C0E
:1030C8007B6843F82210FB689B005A1C7B6853F806
:1030D8002230FA6892000132C3F311017B6843F889
:1030E8002210FA681346DB00134404333A68134489
:1030F8001B781B09D9B2FB689B009A1C7B6843F8B4
:103108002210FB689B009A1C7B6853F822301946F2
:10311800FA681346DB00134405333A6813441B78F6
:103128001B011943FB689B009A1C7B6843F822101B
:10313800FB689B009A1C7B6853F822301946FA6892
:103148001346DB00134406333A6813441B781B0309
:103158001943FB689B009A1C7B6843F82210FB68A4
:103168009B009A1C7B6853F82230FA68920002325E
:10317800C3F311017B6843F82210FA681346DB0099
:10318800134406333A6813441B789B09D9B2FB6889
:103198009B00DA1C7B6843F82210FB689B00DA1C52
:1031A8007B6853F822301946FA681346DB0013444B
:1031B80007333A6813441B789B001943FB689B004C
:1031C800DA1C7B6843F82210FB689B00DA1C7B68DA
:1031D80053F822301946FA681346DB0013440833C3
:1031E8003A6813441B789B021943FB689B00DA1C5E
:1031F8007B6843F82210FB689B00DA1C7B6853F855
:103208002230FA6892000332C3F311017B6843F855
:103218002210FB689A007B6853F82230FA68920003
:10322800C3F500317B6843F82210FB689B005A1CE9
:103238007B6853F82230FA6892000132C3F50031F6
:103248007B6843F82210FB689B009A1C7B6853F844
:103258002230FA6892000232C3F500317B6843F8E5
:103268002210FB689B00DA1C7B6853F82230FA684E
:1032780092000332C3F500317B6843F82210FB68E3
:103288000133FB60FB683F2B7FF69DAE00BF00BF9C
:103298001437BD4680BC704780B485B000AF7860F5
:1032A80039600023FB6081E0FB689A003B6853F8B3
:1032B8002210FA6813465B0013447A681344CAB2B2
:1032C8001A70FA6813465B0013447A6813441B7833
:1032D8005AB2FB689B00591C3B6853F821309B018C
:1032E8005BB2134359B2FA6813465B0013447A6819
:1032F8001344CAB21A70FB689B005A1C3B6853F807
:1033080022309910FA6813465B00134401337A6837
:103318001344CAB21A70FA6813465B0013440133A7
:103328007A6813441B785AB2FB689B00991C3B6867
:1033380053F821301B015BB2134359B2FA681346A4
:103348005B00134401337A681344CAB21A70FB68ED
:103358009B009A1C3B6853F822301911FA681346EF
:103368005B00134402337A681344CAB21A70FA68CD
:1033780013465B00134402337A6813441B785AB22D
:10338800FB689B00D91C3B6853F821309B005BB25B
:10339800134359B2FA6813465B00134402337A6840
:1033A8001344CAB21A70FB680133FB60FB683F2BF9
:1033B8007FF67AAF00BF00BF1437BD4680BC7047A8
:1033C8002DE9B04F88B000AF786000233B618023BF
:1033D800FB6156E00023BB614DE03B6901333B6173
:1033E8002C4A3B6952F82330FB60BB697B6138E0AB
:1033F800FB68DA17984691467A69FB6913449B0083
:103408007A6813441B68DA179A4693460AFB09F24E
:1034180008FB0BF31344A8FB0A452B441D46204622
:10342800294600F0F3F8B8607B699B007A6813447A
:1034380019687A69FB6913449B007A681344BA686F
:103448008A1A1A607B699B007A68134419687B6939
:103458009B007A681344BA680A441A607B6901338E
:103468007B61BA69FB6913447A699A42C0D37A6965
:10347800FB691344BB61BB69FF2BAED9FB695B08D1
:10348800FB61FB69002BA5D100BF00BF2037BD46FB
:10349800BDE8B08F288D00082DE9F04F91B000AF3E
:1034A800F8614AF2FA33FB624FF480733B630123FD
:1034B800BB6373E00023FB636AE03B6B013B3B6348
:1034C800514A3B6B52F823305B42BB62FB6B7B6318
:1034D80054E07B6B9B00FA6913441B687B627A6B30
:1034E800BB6B13449B00FA69134419687B6B9A0001
:1034F800FB691A447B6A0B4413607A6BBB6B1344F9
:103508009B00FA69134419687A6BBB6B13449A00E1
:10351800FB691A447B6A5B1A1360BB6ADA17BB60E3
:10352800FA607A6BBB6B13449B00FA6913441B68FF
:10353800DA173B617A61D7E902010A46D7E9043410
:103548009C460CFB02F2C7E9043484460CFB04F3E6
:10355800134402463969A2FB01AB5B449B467A6B74
:10356800BB6B13449B00FA69D4185046594600F0C7
:103578004DF8034623607B6B01337B63FA6BBB6BAF
:1035880013447A6B9A42A4D37A6BBB6B1344FB63E4
:10359800FB6BFF2B91D9BB6B5B00BB63BB6BFF2B3A
:1035A80088D900237B6326E0FB6ADA171D46164696
:1035B8007B6B9B00FA6913441B68DA173B607A60DF
:1035C800D7E90001034603FB06F20B4605FB03F3AC
:1035D80013440246A5FB02894B4499467B6B9B002A
:1035E800FA69D4184046494600F010F803462360AB
:1035F8007B6B01337B637B6BFF2BD5D900BF00BF8F
:103608004437BD46BDE8F08F288D00082DE9B00F7E
:1036180087B000AFC7E90201B8680146C900091AB6
:10362800890201444903014479617969C8170C4644
:103638000546C7E900454FF000004FF00001A90218
:1036480041EA9451A002D7F800C0BCEB0002D7F8B9
:1036580004C06CEB01034FF000004FF00001590368
:1036680041EAD241500302460B46B2EB040A63EB2F
:10367800050BD7E902231AEB02084BEB03094FF0BD
:1036880000024FF000034A464FEAE97313467B6194
:103698007B6918461C37BD46BDE8B00F704780B43B
:1036A80085B000AF78607B6803F58003DB15FB60AD
:1036B800FA6813465B029B1A9B0213445B039B1A2E
:1036C8007A681344FB60FB6818461437BD4680BC13
:1036D8007047000080B483B000AF78607B68DA1769
:1036E800054B13407A6813447B607B6818460C3797
:1036F800BD4680BC704700BF01E07F0080B485B044
:1037080000AF786039603B6803F6FF735B13FB60BA
:10371800FB685B033A68D21A7B681A60FB68184634
:103728001437BD4680BC704780B485B000AF786060
:1037380039603B687F33DB11FB60FB6842F60B4264
:1037480002FB03F303F500031B16FB60FB68C3F1E0
:103758002B03DB17DB43FA681340FB60FB680D4A59
:1037680003FB02F23B681A447B681A607B681A689C
:103778007B681B68C3F57F1303F54053D917064BC5
:103788000B40D21A7B681A60FB6818461437BD468E
:1037980080BC70470018FDFF01E07F0080B483B053
:1037A80000AF786039607B68B3F5BA3F0ADC7B68A4
:1037B80013F5BA3F06DB7B6813F5BA3F04D13B68C3
:1037C800002B01D0012300E0002318460C37BD462A
:1037D80080BC70472DE9F00386B000AF78604FF0E9
:1037E80000004FF00001C7E902010021796122E0E1
:1037F8007868796901440978C9B200200C46054601
:103808007969C900A1F12006C1F1200005FA01F388
:1038180004FA06F6334324FA00F0034304FA01F2EB
:10382800D7E9020140EA020841EA0309C7E9028927
:1038380079690131796179690729D9D9D7E90223E9
:10384800104619461837BD46BDE8F0037047F0B476
:1038580086B000AFF860C7E9002300237B6119E058
:103868007B69D900D7E90023C1F12006A1F1200026
:1038780022FA01F403FA06F6344323FA00F004436B
:1038880023FA01F5FA687B691344E2B21A707B697E
:1038980001337B617B69072BE2D900BF00BF183772
:1038A800BD46F0BC704700002DE9B00FADF68C3D69
:1038B80000AF07F68833A3F5F673186007F6883368
:1038C800A3F5F6731B68D3E9002307F67831C1E93D
:1038D800002307F68833A3F5F6731B68D3E90223A0
:1038E80007F53761C1E9002307F68833A3F5F673B6
:1038F8001B68D3E9042307F66831C1E9002307F6FA
:103908008833A3F5F6731B68D3E9062307F53661F8
:10391800C1E9002307F68833A3F5F6731B68D3E9DA
:10392800082307F65831C1E9002307F68833A3F5C1
:10393800F6731B68D3E90A2307F53561C1E900234B
:1039480007F68833A3F5F6731B68D3E90C2307F64B
:103958004831C1E9002307F68833A3F5F6731B68DD
:10396800D3E90E2307F53461C1E9002307F688334C
:10397800A3F5F6731B68D3E9102307F63831C1E9BC
:10398800002307F68833A3F5F6731B68D3E91223DF
:1039980007F53361C1E9002307F68833A3F5F67309
:1039A8001B68D3E9142307F62831C1E9002307F679
:1039B8008833A3F5F6731B68D3E9162307F532613C
:1039C800C1E9002307F68833A3F5F6731B68D3E92A
:1039D800182307F61831C1E9002307F68833A3F541
:1039E800F6731B68D3E91A2307F53161C1E900238F
:1039F80007F68833A3F5F6731B68D3E91C2307F68B
:103A08000831C1E9002307F68833A3F5F6731B686C
:103A1800D3E91E2307F53061C1E9002307F688338F
:103A2800A3F5F6731B68D3E9202307F6F821C1E94B
:103A3800002307F68833A3F5F6731B68D3E922231E
:103A480007F52F61C1E9002307F68833A3F5F6735C
:103A58001B68D3E9242307F6E821C1E9002307F608
:103A68008833A3F5F6731B68D3E9262307F52E617F
:103A7800C1E9002307F68833A3F5F6731B68D3E979
:103A8800282307F6D821C1E9002307F68833A3F5D0
:103A9800F6731B68D3E92A2307F52D61C1E90023D2
:103AA80007F68833A3F5F6731B68D3E92C2307F6CA
:103AB800C821C1E9002307F68833A3F5F6731B680C
:103AC800D3E92E2307F52C61C1E9002307F68833D3
:103AD800A3F5F6731B68D3E9302307F6B821C1E9CB
:103AE80000230023C7F8843B02F010BF07F67833A1
:103AF800D3E9000107F53563D3E9002380EA020C16
:103B0800C7F890C94B40C7F8943907F62833D3E96A
:103B1800002307F51961D1E9000184468CEA020CFB
:103B2800C7F888C94B40C7F88C3907F53063D3E923
:103B3800002307F68811D1E9000184468CEA020CBB
:103B4800C7F880C94B40C7F8843907F6D823D3E9AA
:103B5800002307F51861D1E90001844682EA0C0CBC
:103B6800C7F848C54B40C7F84C3507F5A963D3E9F2
:103B7800002307F52B61C1E9002307F53763D3E973
:103B8800000107F64833D3E9002380EA020CC7F89E
:103B980078C94B40C7F87C3907F53263D3E900236D
:103BA80007F67811D1E9000184468CEA020CC7F8BF
:103BB80070C94B40C7F8743907F6F823D3E90023D6
:103BC80007F51761D1E9000184468CEA020CC7F8B1
:103BD80068C94B40C7F86C3907F52D63D3E9002352
:103BE80007F66811D1E90001844682EA0C0CC7F88F
:103BF80040C54B40C7F8443507F5A863D3E900230F
:103C080007F6A821C1E9002307F66833D3E90001C4
:103C180007F53463D3E9002380EA020CC7F860C9CA
:103C28004B40C7F8643907F61833D3E9002307F582
:103C38001661D1E9000184468CEA020CC7F858C91C
:103C48004B40C7F85C3907F52F63D3E9002307F623
:103C58005811D1E9000184468CEA020CC7F850C912
:103C68004B40C7F8543907F6C823D3E9002307F5B2
:103C78001561D1E90001844682EA0C0CC7F838C501
:103C88004B40C7F83C3507F5A763D3E9002307F590
:103C98002A61C1E9002307F53663D3E9000107F675
:103CA8003833D3E9002380EA020CC7F848C94B40EF
:103CB800C7F84C3907F53163D3E9002307F64811F3
:103CC800D1E9000184468CEA020CC7F840C94B4090
:103CD800C7F8443907F6E823D3E9002307F5146148
:103CE800D1E9000184468CEA020CC7F838C94B4078
:103CF800C7F83C3907F52C63D3E9002307F63811D8
:103D0800D1E90001844682EA0C0CC7F830C54B4063
:103D1800C7F8343507F5A663D3E9002307F69821D9
:103D2800C1E9002307F65833D3E9000107F53363E7
:103D3800D3E9002380EA020CC7F830C94B40C7F822
:103D4800343907F60833D3E9002307F51361D1E9BD
:103D5800000184468CEA020CC7F828C94B40C7F812
:103D68002C3907F52E63D3E9002307F62811D1E98A
:103D7800000184468CEA020CC7F820C94B40C7F8FA
:103D8800243907F6B823D3E9002307F51261D1E9EE
:103D98000001844682EA0C0CC7F828C54B40C7F8D6
:103DA8002C3507F5A563D3E9002307F52961C1E997
:103DB8000023D7F8A83ADA0FD7F8AC3A5B001343D8
:103DC800C7F81C39D7F8AC3ADA0FD7F8A83A5B002D
:103DD8001343C7F8183907F52963D3E9002307F611
:103DE8001811D1E90001844682EA0C0CC7F820C5F5
:103DF8004B40C7F8243507F5A463D3E9002307F639
:103E08008821C1E90023D7F8A03ADA0FD7F8A43AF5
:103E18005B001343C7F81439D7F8A43ADA0FD7F878
:103E2800A03A5B001343C7F8103907F52B63D3E9B1
:103E3800002307F51161D1E90001844682EA0C0CE0
:103E4800C7F818C54B40C7F81C3507F5A363D3E975
:103E5800002307F52861C1E90023D7F8983ADA0F5B
:103E6800D7F89C3A5B001343C7F80C39D7F89C3A4B
:103E7800DA0FD7F8983A5B001343C7F8083907F602
:103E8800A823D3E9002307F60811D1E900018446E5
:103E980082EA0C0CC7F810C54B40C7F8143507F573
:103EA800A263D3E9002307F67821C1E90023D7F8F4
:103EB800903ADA0FD7F8943A5B001343C7F80439FD
:103EC800D7F8943ADA0FD7F8903A5B001343C7F85B
:103ED800003907F52A63D3E9002307F51061D1E912
:103EE8000001844682EA0C0CC7F808C54B40C7F8A5
:103EF8000C3507F5A163D3E9002307F52761C1E96C
:103F08000023D7F8B03ADA0FD7F8B43A5B00134376
:103F1800C7F8FC38D7F8B43ADA0FD7F8B03A5B00EC
:103F28001343C7F8F83807F69823D3E9002307F6B0
:103F3800F801D1E90001844682EA0C0CC7F800C5F3
:103F48004B40C7F8043507F5A063D3E9002307F60B
:103F58006821C1E9002307F67833D3E9000107F6A1
:103F68008823D3E9002380EA020CC7F8F8C44B4041
:103F7800C7F8FC3407F59F63D3E9002307F67831C7
:103F8800C1E9002307F67833D3E9002307F52B614D
:103F9800C1E9002307F64833D3E9000107F5286390
:103FA800D3E9002380EA020CC7F8F0C44B40C7F8F5
:103FB800F43407F59E63D3E9002307F64831C1E9D5
:103FC8000023D7F84C3B1A03D7F8483B1B0D134383
:103FD800C7F8E834D7F8483B1A03D7F84C3B1B0D11
:103FE8001343C7F8EC3407F59D63D3E9002307F6BC
:103FF800A821C1E9002307F61833D3E9000107F621
:104008007823D3E9002380EA020CC7F8E0C44B40C8
:10401800C7F8E43407F59C63D3E9002307F61831A1
:10402800C1E90023D7F81C3BDA02D7F8183B5B0D2F
:104038001343C7F8D834D7F8183BDA02D7F81C3B33
:104048005B0D1343C7F8DC3407F59B63D3E9002302
:1040580007F52A61C1E9002307F6E823D3E900013F
:1040680007F52763D3E9002380EA020CC7F8D0C418
:104078004B40C7F8D43407F59A63D3E9002307F611
:10408800E821C1E90023D7F8E83ADA0AD7F8EC3A88
:104098005B051343C7F8CC34D7F8EC3ADA0AD7F8FB
:1040A800E83A5B051343C7F8C83407F59963D3E9C1
:1040B800002307F69821C1E9002307F6B823D3E9BE
:1040C800000107F66823D3E9002380EA020CC7F849
:1040D800C0C44B40C7F8C43407F59863D3E900233C
:1040E80007F6B821C1E90023D7F8B83A9A0CD7F8EF
:1040F800BC3A9B031343C7F8BC34D7F8BC3A9A0CB4
:10410800D7F8B83A9B031343C7F8B83407F5976351
:10411800D3E9002307F52961C1E9002307F6A8239D
:10412800D3E90023D143C7F8F018DB43C7F8F438C4
:1041380007F52A63D3E9002307F50F61D1E90001E8
:1041480084460CEA020CC7F8E8C80B40C7F8EC38FC
:1041580007F52B63D3E9002307F6E801D1E900014D
:10416800844682EA0C0CC7F8B0C44B40C7F8B43494
:1041780007F59663D3E9002307F52661C1E9002313
:10418800C74AD7F8843BDB001344D3E9000107F59D
:104198002663D3E9002382EA000CC7F8A8C44B4081
:1041A800C7F8AC3407F59563D3E9002307F5266112
:1041B800C1E9002307F52A63D3E90023D143C7F8EF
:1041C800E018DB43C7F8E43807F69823D3E900235F
:1041D80007F50E61D1E9000184460CEA020CC7F824
:1041E800D8C80B40C7F8DC3807F6A823D3E9002362
:1041F80007F6D801D1E90001844682EA0C0CC7F819
:10420800A0C44B40C7F8A43407F59463D3E900234E
:1042180007F65821C1E9002307F69823D3E90023BC
:10422800D143C7F8D018DB43C7F8D43807F529635A
:10423800D3E9002307F50D61D1E9000184460CEAB2
:10424800020CC7F8C8C80B40C7F8CC3807F52A6372
:10425800D3E9002307F6C801D1E90001844682EAC0
:104268000C0CC7F898C44B40C7F89C3407F5936307
:10427800D3E9002307F52561C1E9002307F5296380
:10428800D3E90023D143C7F8C018DB43C7F8C438C3
:1042980007F52B63D3E9002307F50C61D1E9000189
:1042A80084460CEA020CC7F8B8C80B40C7F8BC38FB
:1042B80007F69823D3E9002307F6B801D1E90001EE
:1042C800844682EA0C0CC7F890C44B40C7F8943473
:1042D80007F59263D3E9002307F64821C1E90023D3
:1042E80007F52B63D3E90023D143C7F8B018DB43A4
:1042F800C7F8B43807F6A823D3E9002307F50B61FC
:10430800D1E9000184460CEA020CC7F8A8C80B40A2
:10431800C7F8AC3807F52963D3E9002307F6A801E5
:10432800D1E90001844682EA0C0CC7F888C44B40E6
:10433800C7F88C3407F59163D3E9002307F52461A6
:10434800C1E9002307F53663D3E9000107F52763C0
:10435800D3E9002380EA020CC7F880C44B40C7F8B1
:10436800843407F59063D3E9002307F53661C1E982
:104378000023D7F8603B1A09D7F8643B1B0713439F
:10438800C7F87C34D7F8643B1A09D7F8603B1B0799
:104398001343C7F8783407F58F63D3E9002307F58B
:1043A8002B61C1E9002307F53363D3E9000107F660
:1043B8006823D3E9002380EA020CC7F870C44B4095
:1043C800C7F8743407F58E63D3E9002307F5336122
:1043D800C1E90023D7F8303B1A0BD7F8343B1B054B
:1043E8001343C7F86C34D7F8343B1A0BD7F8303B73
:1043F8001B051343C7F8683407F58D63D3E9002319
:1044080007F6A821C1E9002307F62833D3E90001FC
:1044180007F68823D3E9002380EA020CC7F860C4B2
:104428004B40C7F8643407F58C63D3E9002307F6DB
:104438002831C1E90023D7F8283B5A0FD7F82C3B7D
:10444800DB001343C7F85C34D7F82C3B5A0FD7F876
:10445800283BDB001343C7F8583407F58B63D3E9CF
:10446800002307F52A61C1E9002307F6F823D3E9F9
:10447800000107F52863D3E9002380EA020CC7F896
:1044880050C44B40C7F8543407F58A63D3E9002376
:1044980007F6F821C1E90023D7F8FC3A5A0301E0EE
:1044A80028910008D7F8F83ADB0C1343C7F84834CA
:1044B800D7F8F83A5A03D7F8FC3ADB0C1343C7F895
:1044C8004C3407F58963D3E9002307F69821C1E93D
:1044D800002307F6C823D3E9000107F67823D3E9B8
:1044E800002380EA020CC7F840C44B40C7F84434A4
:1044F80007F58863D3E9002307F6C821C1E900233B
:10450800D7F8CC3A5A07D7F8C83ADB081343C7F8A4
:104518003834D7F8C83A5A07D7F8CC3ADB081343E7
:10452800C7F83C3407F58763D3E9002307F5296109
:10453800C1E9002307F6A823D3E90023D143C7F82C
:10454800A018DB43C7F8A43807F52A63D3E900238A
:1045580007F50A61D1E9000184460CEA020CC7F8A4
:1045680098C80B40C7F89C3807F52B63D3E900239C
:1045780007F69801D1E90001844682EA0C0CC7F8D5
:1045880030C44B40C7F8343407F58663D3E90023B9
:1045980007F63821C1E9002307F52A63D3E9002388
:1045A800D143C7F89018DB43C7F8943807F6982327
:1045B800D3E9002307F50961D1E9000184460CEA33
:1045C800020CC7F888C80B40C7F88C3807F6A82330
:1045D800D3E9002307F68801D1E90001844682EA7D
:1045E8000C0CC7F828C44B40C7F82C3407F5856372
:1045F800D3E9002307F52361C1E9002307F69823CF
:10460800D3E90023D143C7F88018DB43C7F88438BF
:1046180007F52963D3E9002307F50861D1E900010B
:1046280084460CEA020CC7F878C80B40C7F87C38F7
:1046380007F52A63D3E9002307F67801D1E90001D9
:10464800844682EA0C0CC7F820C44B40C7F82434CF
:1046580007F58463D3E9002307F62821C1E900237D
:1046680007F52963D3E90023D143C7F87018DB4362
:10467800C7F8743807F52B63D3E9002307F50761FA
:10468800D1E9000184460CEA020CC7F868C80B405F
:10469800C7F86C3807F69823D3E9002307F66801B2
:1046A800D1E90001844682EA0C0CC7F818C44B40D3
:1046B800C7F81C3407F58363D3E9002307F52261A3
:1046C800C1E9002307F52B63D3E90023D143C7F8D9
:1046D8006018DB43C7F8643807F6A823D3E900233A
:1046E80007F50661D1E9000184460CEA020CC7F817
:1046F80058C80B40C7F85C3807F52963D3E900238D
:1047080007F65801D1E90001844682EA0C0CC7F883
:1047180010C44B40C7F8143407F58263D3E900236B
:1047280007F61821C1E9002307F53763D3E900012B
:1047380007F52863D3E9002380EA020CC7F808C408
:104748004B40C7F80C3407F58163D3E9002307F51C
:104758003761C1E90023D7F8703BDA0FD7F8743B0B
:104768005B001343C7F80434D7F8743BDA0FD7F863
:10477800703B5B001343C7F8003407F58063D3E947
:10478800002307F52B61C1E9002307F53463D3E95A
:10479800000107F67823D3E9002380EA020CC7F862
:1047A800F8C34B40C7F8FC33D7E9FE2307F534615B
:1047B800C1E90023D7F8403B9A0ED7F8443B9B0148
:1047C8001343C7F8F433D7F8443B9A0ED7F8403B65
:1047D8009B011343C7F8F033D7E9FC2307F6A82158
:1047E800C1E9002307F53163D3E9000107F5276321
:1047F800D3E9002380EA020CC7F8E8C34B40C7F8A6
:10480800EC33D7E9FA2307F53161C1E90023D7F87A
:10481800103BDA09D7F8143B5B061343C7F8E433B7
:10482800D7F8143BDA09D7F8103B5B061343C7F8EF
:10483800E033D7E9F82307F52A61C1E9002307F532
:104848002E63D3E9000107F66823D3E9002380EA41
:10485800020CC7F8D8C34B40C7F8DC33D7E9F623B6
:1048680007F52E61C1E90023D7F8E03A1A0ED7F808
:10487800E43A1B021343C7F8D433D7F8E43A1A0EC4
:10488800D7F8E03A1B021343C7F8D033D7E9F4232B
:1048980007F69821C1E9002307F6D823D3E90001D8
:1048A80007F68823D3E9002380EA020CC7F8C8C3B7
:1048B8004B40C7F8CC33D7E9F22307F6D821C1E932
:1048C8000023D7F8D83A9A0BD7F8DC3A9B0413435D
:1048D800C7F8C433D7F8DC3A9A0BD7F8D83A9B0410
:1048E8001343C7F8C033D7E9F02307F52961C1E9B5
:1048F800002307F6A823D3E90023D143C7F85018AB
:10490800DB43C7F8543807F52A63D3E9002307F5D2
:104918000561D1E9000184460CEA020CC7F848C8D1
:104928000B40C7F84C3807F52B63D3E9002307F68B
:104938004801D1E90001844682EA0C0CC7F8B8C3E3
:104948004B40C7F8BC33D7E9EE2307F52161C1E92D
:10495800002307F52A63D3E90023D143C7F8401899
:10496800DB43C7F8443807F69823D3E9002307F553
:104978000461D1E9000184460CEA020CC7F838C882
:104988000B40C7F83C3807F6A823D3E9002307F6FD
:104998003801D1E90001844682EA0C0CC7F8B0C39B
:1049A8004B40C7F8B433D7E9EC2307F60821C1E92F
:1049B800002307F69823D3E90023D143C7F830181A
:1049C800DB43C7F8343807F52963D3E9002307F533
:1049D8000361D1E9000184460CEA020CC7F828C833
:1049E8000B40C7F82C3807F52A63D3E9002307F6EC
:1049F8002801D1E90001844682EA0C0CC7F8A8C353
:104A08004B40C7F8AC33D7E9EA2307F52061C1E981
:104A1800002307F52963D3E90023D143C7F82018F9
:104A2800DB43C7F8243807F52B63D3E9002307F5E0
:104A38000261D1E9000184460CEA020CC7F818C8E3
:104A48000B40C7F81C3807F69823D3E9002307F66C
:104A58001801D1E90001844682EA0C0CC7F8A0C30A
:104A68004B40C7F8A433D7E9E82307F6F811C1E9A2
:104A7800002307F52B63D3E90023D143C7F81018A7
:104A8800DB43C7F8143807F6A823D3E9002307F552
:104A98000161D1E9000184460CEA020CC7F808C894
:104AA8000B40C7F80C3807F52963D3E9002307F64C
:104AB8000801D1E90001844682EA0C0CC7F898C3C2
:104AC8004B40C7F89C33D7E9E62307F51F61C1E9D6
:104AD800002307F65833D3E9000107F66823D3E922
:104AE800002380EA020CC7F890C34B40C7F8943300
:104AF800D7E9E42307F65831C1E90023D7F8583B32
:104B08005A09D7F85C3BDB061343C7F88C33D7F850
:104B18005C3B5A09D7F8583BDB061343C7F8883380
:104B2800D7E9E22307F52B61C1E9002307F53563CF
:104B3800D3E9000107F68823D3E9002380EA020CB1
:104B4800C7F880C34B40C7F88433D7E9E02307F59B
:104B58003561C1E90023D7F8543B1A01D7F8503B17
:104B68001B0F1343C7F87833D7F8503B1A01D7F80F
:104B7800543B1B0F1343C7F87C33D7E9DE2307F6F2
:104B8800A821C1E9002307F53263D3E9000107F53D
:104B98002863D3E9002380EA020CC7F870C34B40AE
:104BA800C7F87433D7E9DC2307F53261C1E900237C
:104BB800D7F8203B9A0DD7F8243B9B021343C7F83C
:104BC8006C33D7F8243B9A0DD7F8203B9B0213434C
:104BD800C7F86833D7E9DA2307F52A61C1E9002362
:104BE80007F52F63D3E9000107F67823D3E90023FB
:104BF80080EA020CC7F860C34B40C7F86433D7E9B2
:104C0800D82307F52F61C1E90023D7F8F03A5A0CE9
:104C1800D7F8F43ADB031343C7F85C33D7F8F43A10
:104C28005A0CD7F8F03ADB031343C7F85833D7E9DF
:104C3800D62307F69821C1E9002307F52C63D3E9A9
:104C4800000107F52763D3E9002380EA020CC7F8BF
:104C580050C34B40C7F85433D7E9D42307F52C6128
:104C6800C1E90023D7F8C43A1A06D7F8C03A1B0A94
:104C78001343C7F84833D7F8C03A1A06D7F8C43AE6
:104C88001B0A1343C7F84C33D7E9D22307F5296128
:104C9800C1E9002307F6A823D3E90023D143C7F8C5
:104CA8000018DB43C7F8043807F52A63D3E9002363
:104CB80007F50061D1E9000184460CEA020CC7F847
:104CC800F8C70B40C7F8FC3707F52B63D3E9002377
:104CD80007F5FF61D1E90001844682EA0C0CC7F8A8
:104CE80040C34B40C7F84433D7E9D02307F6E8114F
:104CF800C1E9002307F52A63D3E90023D143C7F8A4
:104D0800F017DB43C7F8F43707F69823D3E90023F5
:104D180007F5FE61D1E9000184460CEA020CC7F8E8
:104D2800E8C70B40C7F8EC3707F6A823D3E90023F8
:104D380007F5FD61D1E90001844682EA0C0CC7F849
:104D480038C34B40C7F83C33D7E9CE2307F51E617B
:104D5800C1E9002307F69823D3E90023D143C7F814
:104D6800E017DB43C7F8E43707F52963D3E90023E5
:104D780007F5FC61D1E9000184460CEA020CC7F88A
:104D8800D8C70B40C7F8DC3707F52A63D3E90023F7
:104D980007F5FB61D1E90001844682EA0C0CC7F8EB
:104DA80030C34B40C7F83433D7E9CC2307F6D811C2
:104DB800C1E9002307F52963D3E90023D143C7F8E4
:104DC800D017DB43C7F8D43707F52B63D3E90023A3
:104DD80007F5FA61D1E9000184460CEA020CC7F82C
:104DE800C8C70B40C7F8CC3707F69823D3E9002388
:104DF80007F5F961D1E90001844682EA0C0CC7F88D
:104E080028C34B40C7F82C33D7E9CA2307F51D61DF
:104E1800C1E9002307F52B63D3E90023D143C7F881
:104E2800C017DB43C7F8C43707F6A823D3E9002324
:104E380007F5F861D1E9000184460CEA020CC7F8CD
:104E4800B8C70B40C7F8BC3707F52963D3E9002377
:104E580007F5F761D1E90001844682EA0C0CC7F82E
:104E680020C34B40C7F82433D7E9C82307F6C81135
:104E7800C1E9002307F66833D3E9000107F6782370
:104E8800D3E9002380EA020CC7F818C34B40C7F8DF
:104E98001C33D7E9C62307F66831C1E90023D7F8E0
:104EA8006C3B9A07D7F8683B9B081343C7F8103345
:104EB800D7F8683B9A07D7F86C3B9B081343C7F8A9
:104EC8001433D7E9C42307F52B61C1E9002307F69A
:104ED8003833D3E9000107F52763D3E9002380EAD3
:104EE800020CC7F808C34B40C7F80C33D7E9C223F4
:104EF80007F63831C1E90023D7F83C3BDA05D7F883
:104F0800383B5B0A1343C7F80033D7F8383BDA0558
:104F1800D7F83C3B5B0A1343C7F80433D7E9C023EF
:104F280007F6A821C1E9002307F60833D3E90001F1
:104F380007F66823D3E9002380EA020CC7F8F8C211
:104F48004B40C7F8FC32D7E9BE2307F60831C1E960
:104F58000023D7F80C3BDA01D7F8083B5B0E134364
:104F6800C7F8F032D7F8083BDA01D7F80C3B5B0EEC
:104F78001343C7F8F432D7E9BC2307F52A61C1E91E
:104F8800002307F53063D3E9000107F68823D3E946
:104F9800002380EA020CC7F8E8C24B40C7F8EC329D
:104FA800D7E9BA2307F53061C1E90023D7F8043BF4
:104FB8005A02D7F8003BDB0D1343C7F8E032D7F8A5
:104FC800003B5A02D7F8043BDB0D1343C7F8E43221
:104FD800D7E9B82307F69821C1E9002307F52D631F
:104FE800D3E9000107F52863D3E9002380EA020C1E
:104FF800C7F8D8C24B40C7F8DC32D7E9B62307F563
:105008002D61C1E90023D7F8D03A9A0FD7F8D43ADE
:105018009B001343C7F8D432D7F8D43A9A0FD7F87D
:10502800D03A9B001343C7F8D032D7E9B42307F529
:105038002961C1E9002307F6A823D3E90023D14356
:10504800C7F8B017DB43C7F8B43707F52A63D3E9C5
:10505800002307F5F661D1E9000184460CEA020C49
:10506800C7F8A8C70B40C7F8AC3707F52B63D3E9D7
:10507800002307F5F561D1E90001844682EA0C0CAA
:10508800C7F8C8C24B40C7F8CC32D7E9B22307F5F6
:105098001C61C1E9002307F52A63D3E90023D14342
:1050A800C7F8A017DB43C7F8A43707F69823D3E956
:1050B800002307F5F461D1E9000184460CEA020CEB
:1050C800C7F898C70B40C7F89C3707F6A823D3E959
:1050D800002307F5F361D1E90001844682EA0C0C4C
:1050E800C7F8C0C24B40C7F8C432D7E9B02307F6A7
:1050F800B811C1E9002307F69823D3E90023D14367
:10510800C7F89017DB43C7F8943707F52963D3E945
:10511800002307F5F261D1E9000184460CEA020C8C
:10512800C7F888C70B40C7F88C3707F52A63D3E957
:10513800002307F5F161D1E90001844682EA0C0CED
:10514800C7F8B8C24B40C7F8BC32D7E9AE2307F559
:105158001B61C1E9002307F52963D3E90023D14383
:10516800C7F88017DB43C7F8843707F52B63D3E903
:10517800002307F5F061D1E9000184460CEA020C2E
:10518800C7F878C70B40C7F87C3707F69823D3E9E8
:10519800002307F5EF61D1E90001844682EA0C0C8F
:1051A800C7F8B0C24B40C7F8B432D7E9AC2307F60A
:1051B800A811C1E9002307F52B63D3E90023D143E4
:1051C800C7F87017DB43C7F8743707F6A823D3E985
:1051D800002307F5EE61D1E9000184460CEA020CD0
:1051E800C7F868C70B40C7F86C3707F52963D3E9D8
:1051F800002307F5ED61D1E90001844682EA0C0C31
:10520800C7F8A8C24B40C7F8AC32D7E9AA2307F5BC
:105218001A61C1E9002307F52663D3E9000107F6FF
:105228003823D3E9002380EA020CC7F860C74B4053
:10523800C7F8643707F52163D3E9002307F5EC6164
:10524800D1E9000184468CEA020CC7F858C74B40E4
:10525800C7F85C3707F6E813D3E9002307F5EB61D5
:10526800D1E9000184468CEA020CC7F850C74B40CC
:10527800C7F8543707F51C63D3E9002307F5EA613B
:10528800D1E90001844682EA0C0CC7F8A0C24B4061
:10529800C7F8A432D7E9A82307F52B61C1E9002391
:1052A80007F65823D3E9000107F52363D3E9002360
:1052B80080EA020CC7F848C74B40C7F84C3707F6D6
:1052C8000823D3E9002307F5E961D1E90001844601
:1052D8008CEA020CC7F840C74B40C7F8443707F5BB
:1052E8001E63D3E9002307F5E861D1E9000184468C
:1052F8008CEA020CC7F838C74B40C7F83C3707F6AA
:10530800B813D3E9002307F5E761D1E90001844622
:1053180082EA0C0CC7F898C24B40C7F89C32D7E910
:10532800A62307F6A821C1E9002307F52563D3E9D9
:10533800000107F62823D3E9002380EA020CC7F806
:1053480030C74B40C7F8343707F52063D3E900234B
:1053580007F5E661D1E9000184468CEA020CC7F83A
:1053680028C74B40C7F82C3707F6D813D3E90023D2
:1053780007F5E561D1E9000184468CEA020CC7F81B
:1053880020C74B40C7F8243707F51B63D3E9002330
:1053980007F5E461D1E90001844682EA0C0CC7F8FC
:1053A80090C24B40C7F89432D7E9A42307F52A6185
:1053B800C1E9002307F64823D3E9000107F5226372
:1053C800D3E9002380EA020CC7F818C74B40C7F896
:1053D8001C3707F6F813D3E9002307F5E361D1E991
:1053E800000184468CEA020CC7F810C74B40C7F886
:1053F800143707F51D63D3E9002307F5E261D1E906
:10540800000184468CEA020CC7F808C74B40C7F86D
:105418000C3707F6A813D3E9002307F5E161D1E9B2
:105428000001844682EA0C0CC7F888C24B40C7F8D2
:105438008C32D7E9A22307F69821C1E9002307F5A2
:105448002463D3E9000107F61823D3E9002380EA8F
:10545800020CC7F800C74B40C7F8043707F51F63AD
:10546800D3E9002307F5E061D1E9000184468CEA1D
:10547800020CC7F8F8C64B40C7F8FC3607F6C81345
:10548800D3E9002307F5DF61D1E9000184468CEAFE
:10549800020CC7F8F0C64B40C7F8F43607F51A6394
:1054A800D3E9002307F5DE61D1E90001844682EAE9
:1054B8000C0CC7F880C24B40C7F88432D7E9A02348
:1054C80007F52961C1E90023D7F8A83ADA0FD7F818
:1054D800AC3A5B001343C7F8EC36D7F8AC3ADA0FAE
:1054E800D7F8A83A5B001343C7F8E83607F52963ED
:1054F800D3E9002307F5DD61D1E90001844682EA9A
:105508000C0CC7F878C24B40C7F87C32D7E99E2309
:1055180007F68821C1E90023D7F8A03ADA0FD7F8AF
:10552800A43A5B001343C7F8E436D7F8A43ADA0F75
:10553800D7F8A03A5B001343C7F8E03607F52B63AA
:10554800D3E9002307F5DC61D1E90001844682EA4A
:105558000C0CC7F870C24B40C7F87432D7E99C23CB
:1055680007F52861C1E90023D7F8983ADA0FD7F888
:105578009C3A5B001343C7F8DC36D7F89C3ADA0F3D
:10558800D7F8983A5B001343C7F8D83607F6A8232C
:10559800D3E9002307F5DB61D1E90001844682EAFB
:1055A8000C0CC7F868C24B40C7F86C32D7E99A238D
:1055B80007F67821C1E90023D7F8903ADA0FD7F82F
:1055C800943A5B001343C7F8D436D7F8943ADA0F05
:1055D800D7F8903A5B001343C7F8D03607F52A632B
:1055E800D3E9002307F5DA61D1E90001844682EAAC
:1055F8000C0CC7F860C24B40C7F86432D7E998234F
:1056080007F52761C1E90023D7F8B03ADA0FD7F8D0
:10561800B43A5B001343C7F8CC36D7F8B43ADA0F7C
:10562800D7F8B03A5B001343C7F8C83607F6982393
:10563800D3E9002307F5D961D1E90001844682EA5C
:105648000C0CC7F858C24B40C7F85C32D7E9962310
:1056580007F66821C1E9002307F52663D3E90001AD
:1056680007F68823D3E9002380EA020CC7F850C262
:105678004B40C7F85432D7E9942307F52661C1E9AE
:10568800002307F52663D3E9002307F52B61C1E959
:10569800002307F52363D3E9000107F52863D3E95D
:1056A800002380EA020CC7F848C24B40C7F84C32C6
:1056B800D7E9922307F52361C1E9002307F6883368
:1056C800A3F5AA7007F68833A3F5AC7103681A032B
:1056D8000B681B0D1343C7F840320B681A030368A5
:1056E8001B0D1343C7F84432D7E9902307F6A821C6
:1056F800C1E9002307F52063D3E9000107F6782301
:10570800D3E9002380EA020CC7F838C24B40C7F837
:105718003C32D7E98E2307F52061C1E9002307F65B
:105728008833A3F5C27007F68833A3F5C4710368FC
:10573800DA020B685B0D1343C7F830320B68DA02E4
:1057480003685B0D1343C7F83432D7E98C2307F598
:105758002A61C1E9002307F51D63D3E9000107F5B4
:105768002763D3E9002380EA020CC7F828C24B401C
:10577800C7F82C32D7E98A2307F51D61C1E9002350
:1057880007F68833A3F5DC7007F68833A3F5DA71DA
:105798000368DA0A0B685B051343C7F824320B6801
:1057A800DA0A03685B051343C7F82032D7E9882370
:1057B80007F69821C1E9002307F51A63D3E9000128
:1057C80007F66823D3E9002380EA020CC7F818C259
:1057D8004B40C7F81C32D7E9862307F51A61C1E99F
:1057E800002307F68833A3F5F47007F68833A3F58A
:1057F800F27103689A0C0B689B031343C7F81432C1
:105808000B689A0C03689B031343C7F81032D7E957
:10581800842307F52961C1E9002307F6A823D3E902
:105828000023D143C7F8C016DB43C7F8C43607F5D1
:105838002A63D3E9002307F5D861D1E9000184463A
:105848000CEA020CC7F8B8C60B40C7F8BC3607F517
:105858002B63D3E9002307F5D761D1E9000184461A
:1058680082EA0C0CC7F808C24B40C7F80C32D7E9DB
:10587800822307F67831C1E90023D7F8843B013346
:10588800C14ADB001344D3E9000107F67833D3E9B2
:10589800002382EA000CC7F800C24B40C7F8043264
:1058A800D7E9802307F67831C1E9002307F52A6391
:1058B800D3E90023D143C7F8B016DB43C7F8B436A1
:1058C80007F69823D3E9002307F5D661D1E900014B
:1058D80084460CEA020CC7F8A8C60B40C7F8AC36D9
:1058E80007F6A823D3E9002307F5D561D1E900011C
:1058F800844682EA0C0CC7F8F8C14B40C7F8FC3163
:10590800D7E97E2307F53761C1E9002307F6982315
:10591800D3E90023D143C7F8A016DB43C7F8A43660
:1059280007F52963D3E9002307F5D461D1E900011C
:1059380084460CEA020CC7F898C60B40C7F89C3698
:1059480007F52A63D3E9002307F5D361D1E90001FC
:10595800844682EA0C0CC7F8F0C14B40C7F8F43112
:10596800D7E97C2307F66831C1E9002307F52963E5
:10597800D3E90023D143C7F89016DB43C7F8943620
:1059880007F52B63D3E9002307F5D261D1E90001BC
:1059980084460CEA020CC7F888C60B40C7F88C3658
:1059A80007F69823D3E9002307F5D161D1E900016F
:1059B800844682EA0C0CC7F8E8C14B40C7F8EC31C2
:1059C800D7E97A2307F53661C1E9002307F52B6388
:1059D800D3E90023D143C7F88016DB43C7F88436E0
:1059E80007F6A823D3E9002307F5D061D1E9000120
:1059F80084460CEA020CC7F878C60B40C7F87C3618
:105A080007F52963D3E9002307F5CF61D1E9000140
:105A1800844682EA0C0CC7F8E0C14B40C7F8E43171
:105A2800D7E9782307F65831C1E9002307F6482358
:105A3800D3E9000107F52763D3E9002380EA020CC4
:105A4800C7F8D8C14B40C7F8DC31D7E9762307F649
:105A58004821C1E9002307F68833A3F5A07007F6AB
:105A68008833A3F59E7103681A090B681B07134353
:105A7800C7F8D4310B681A0903681B071343C7F822
:105A8800D031D7E9742307F52B61C1E9002307F664
:105A98001823D3E9000107F66823D3E9002380EA35
:105AA800020CC7F8C8C14B40C7F8CC31D7E97223FC
:105AB80007F61821C1E9002307F68833A3F5B87063
:105AC80007F68833A3F5B67103681A0B0B681B0534
