:020000040800F2
:1000000000000220458500088D8500088D850008C8
:100010008D8500088D8500088D8500080000000092
:100020000000000000000000000000008D850008B6
:100030008D850008000000008D8500088D85000872
:1000400000000000000000000000000000000000B0
:1000500000000000000000000000000000000000A0
:100060000000000000000000000000000000000090
:100070000000000000000000000000000000000080
:100080000000000000000000000000000000000070
:100090000000000000000000000000000000000060
:1000A0000000000000000000000000000000000050
:1000B0000000000000000000000000000000000040
:1000C0000000000000000000000000000000000030
:1000D0000000000000000000000000000000000020
:1000E0000000000000000000000000000000000010
:1000F0000000000000000000000000000000000000
:1001000000000000000000000000000000000000EF
:1001100000000000000000000000000000000000DF
:1001200000000000000000000000000000000000CF
:1001300000000000000000000000000000000000BF
:1001400000000000000000000000000000000000AF
:10015000000000000000000000000000000000009F
:10016000000000000000000000000000000000008F
:10017000000000000000000000000000000000007F
:08018000000000000000000077
:100188000348044B834202D0034B03B1184770471E
:1001980050080020500800200000000005480649CB
:1001A8000B1AD90F01EBA301491002D0034B03B17D
:1001B8001847704750080020500800200000000031
:1001C80010B5064C237843B9FFF7DAFF044B13B197
:1001D8000448AFF300800123237010BD50080020AD
:1001E80000000000A485000808B5044B1BB10449B1
:1001F8000448AFF30080BDE80840CFE700000000E6
:1002080054080020A4850008002301461A46184611
:1002180000F0BABB014B1868704700BF10000020FF
:1002280008B50021044600F0E3FB044B1868C36BD3
:1002380003B19847204600F089FD00BFA087000859
:1002480038B5084B084D5B1B9C1007D0043B1D4478
:10025800013C55F804399847002CF9D1BDE83840DD
:1002680008F0A2B9B0870008AC87000870B50D4E39
:100278000D4D761BB61006D0002455F8043B01340A
:100288009847A642F9D1094E094D761B08F086F920
:10029800B61006D0002455F8043B01349847A6420E
:1002A800F9D170BDA4870008A4870008AC870008AE
:1002B800A4870008024B0146186800F00BB800BF7D
:1002C80010000020024B0146186800F039BC00BF3E
:1002D800100000202DE9F04F01F10B06162E83B017
:1002E800044624D8102900F2BA8000F037FB102603
:1002F80018220220B74F3A44A2F1080153688B42F2
:1003080000F0BA805A68D96822F003021A449D683E
:10031800E9608D60516841F001012046516003F1A8
:10032800080500F01DFB284603B0BDE8F08F36F045
:10033800070600F19480B14200F2918000F00EFBB4
:10034800B6F5FC7FC0F09681730A00F08F80042B0D
:1003580000F26B81B30903F1390003F1380CC300D3
:100368009C4F3B44A3F108055B689D4206D10CE015
:10037800002980F22B81DB689D4206D05A6822F062
:100388000302911B0F29F3DD60463D69DFF848C27F
:1003980065457CD06A6822F00302931B0F2B00F39B
:1003A8007781002BC7E904CC80F26881B2F5007F21
:1003B80080F01681D308796801334FEA521E012272
:1003C80002FA0EF20A4357F833E0C5F808E007EBE3
:1003D800C3010839E9607A6047F83350CEF80C5009
:1003E800831001219940914257D8114206D120F03B
:1003F80003004900114200F10400FAD007EBC009DC
:100408004D468646D5F80C80454508D119E1002BA4
:1004180080F22081D8F80C80454500F01281D8F888
:10042800042022F00302931B0F2BF0DD2046D8E9AD
:10043800025408EB060146F00106C8F80460EC60B7
:10044800A56043F00104C7E90411C1E902CC4C607E
:1004580048F8023000F084FA08F1080502E00C239D
:1004680023600025284603B0BDE8F08F4FF40073E1
:1004780040204FF03F0C73E7D3689A4208BF023020
:100488007FF440AF3D69DFF850C1654582D17A6895
:100498008310012199409142A7D9BD686B6823F068
:1004A8000308464503D8A8EB06030F2B7EDCDFF8CC
:1004B8002C91D7F80824D9F800300132334405EBE1
:1004C800080A00F02F8103F580530F3323F47F6B64
:1004D8002BF00F0B5946204600F044FA411C024607
:1004E80000F0EF80824500F2EA80D9F80410594400
:1004F800C9F804100B4600F04B81D7F808140131F5
:100508001BBFA2EB0A0A5344C7F80824C9F80430F1
:1005180012F0070300F01281C3F108010A44C3F581
:10052800805193440831A1EB0B01C1F30B0A5146EA
:1005380020460192009300F015FA421CDDE90032D2
:1005480000F04B81831A03EB0A0BD9F80400BA6058
:100558004BF001030AEB0001BD425360C9F80410D7
:1005680000F02281B8F10F0F40F220816B68A8F1EA
:100578000C0020F0070003F0010303436B604FF009
:10058800050C2B180F28C3E901CC00F22D81536804
:100598001546D9F82C208A42D9F8302038BFC9F836
:1005A8002C108A4238BFC9F830108CE0AA1943F0E1
:1005B800010346F001066E602046BA60536000F001
:1005C800CFF90835284603B0BDE8F08FD9681A443A
:1005D8009DE600BF400400204804002014170020B6
:1005E800B2F5206F4FEA522363D3142B00F2B88080
:1005F80003F15C01C9005B3307EB010E7958AEF1DA
:10060800080E8E4500F091804B6823F00303934257
:1006180002D989688E45F7D1D1F80CE07A68C5E926
:10062800021ECEF80850CD60DAE6142B59D9542BA7
:1006380000F29E80330B03F16F0003F16E0CC300D0
:100648008EE60EF1010E1EF0030F05F108057FF48A
:10065800D9AE51E0424445465368D8F80C1043F0EF
:100668000103536055F8083F2046D9608B6000F0BD
:1006780077F9F7E6F00806F108023BE62A44204637
:10068800536843F001035360083500F069F9E9E65F
:10069800A919204646F0010643F001046E60C7E937
:1006A8000411C1E902CC4C60AB5000F059F908358F
:1006B800D8E6930903F13901C90038339CE7BD42F4
:1006C80060D0BD686B6823F0030B5E45ABEB060397
:1006D80002D80F2B3FF76AAF204600F041F90025FA
:1006E800C0E603F15C0003F15B0CC30038E659F87F
:1006F80008394B4540F0968010F0030F00F1FF30A9
:10070800F5D17B6823EA01037B60490099423FF6F3
:10071800C4AE19B9C1E649000EF1040E1942FAD067
:1007280070466BE603F1100BD4E69A104FF00108FF
:100738007B6808FA02F21A437A6070E702EB0B0151
:100748004942C1F30B0A514620460193009200F03A
:1007580009F9431CDDE900237FF4F4AE9A46F4E678
:10076800542B26D8130B03F16F01C9006E3343E7EE
:10077800B3F5AA7F26D8F30B03F1780003F1770CC1
:10078800C300EDE5D9F804305B44C9F80430B4E699
:10079800CAF30B0000287FF4B0AEBD6808EB0B036A
:1007A80043F001036B60F4E61546F2E6012353605B
:1007B80092E7B3F5AA7F21D8D30B03F17801C900DA
:1007C800773319E740F25452934221D8B30C03F11E
:1007D8007D0003F17C0CC300C2E5083B9B44ABEBF6
:1007E800020B4FF0000AB0E605F10801204600F0C0
:1007F800A7F9BD68D9F804106B68CAE640F25451ED
:100808008B420BD8930C03F17D01C9007C33F3E6CE
:100818004FF47E737F204FF07E0CA1E54FF47E717C
:100828007E23E9E67B6870E7844641EA000313F01B
:1008380003036DD1403A41D351F8043B40F8043BDF
:1008480051F8043B40F8043B51F8043B40F8043BA2
:1008580051F8043B40F8043B51F8043B40F8043B92
:1008680051F8043B40F8043B51F8043B40F8043B82
:1008780051F8043B40F8043B51F8043B40F8043B72
:1008880051F8043B40F8043B51F8043B40F8043B62
:1008980051F8043B40F8043B51F8043B40F8043B52
:1008A80051F8043B40F8043B51F8043B40F8043B42
:1008B80051F8043B40F8043B403ABDD2303211D3E2
:1008C80051F8043B40F8043B51F8043B40F8043B22
:1008D80051F8043B40F8043B51F8043B40F8043B12
:1008E800103AEDD20C3205D351F8043B40F8043BE2
:1008F800043AF9D2043208D0D2071CBF11F8013BE0
:1009080000F8013B01D30B8803806046704700BFA5
:10091800082A13D38B078DD010F003038AD0C3F1B4
:100928000403D21ADB071CBF11F8013B00F8013B96
:1009380080D331F8023B20F8023B7BE7043AD9D355
:10094800013A11F8013B00F8013BF9D20B7803702A
:100958004B7843708B78837060467047704700BF50
:10096800704700BF38B5074D0022044608462A6084
:1009780007F07CFD431C00D038BD2B68002BFBD052
:10098800236038BD4817002070B4184C2568D5F886
:1009980048411CB365681F2D25DC38B9AB1C0135EF
:1009A800656044F82310002070BC704704EB850C88
:1009B8000228CCF88820D4F888614FF0010202FAA6
:1009C80005F246EA0206C4F88861CCF80831E5D198
:1009D800D4F88C311343C4F88C31DFE705F5A674DD
:1009E800C5F84841D6E74FF0FF30DDE7A08700089B
:1009F8002DE9F04F294B1F6883B0D7F84861019063
:100A0800B6B18B464FF001084FF000097468651EB7
:100A18000ED4013406EB8404BBF1000F0BD0D4F8DC
:100A280000315B4507D0013D6B1CA4F10404F3D1F0
:100A380003B0BDE8F08F73682268013BAB420CBF7E
:100A48007560C4F80090002AEDD0D6F88801D6F871
:100A580004A008FA05F101420BD19047726852458B
:100A680012D1D7F84831B342DDD01E46002ECDD181
:100A7800DEE7D6F88C0101420BD1D4F8801001983A
:100A8800904772685245ECD0D7F84861002EBDD126
:100A9800CEE7D4F880009047E0E700BFA0870008C1
:100AA800F8B5244F0C460646FFF758FFBA68556854
:100AB800C4F57E630F3325F003052B4423F47F63CD
:100AC80023F00F03A3F58054B4F5805F07DB002102
:100AD8003046FFF747FFBB682B44984204D03046A6
:100AE800FFF73EFF0020F8BD61423046FFF73AFFAE
:100AF80001300DD0104ABB682D1B45F001055D6023
:100B0800136830461B1B1360FFF72AFF0120F8BD4E
:100B180000213046FFF726FFBA68831A0F2BDEDD67
:100B280043F001035360054B03491B68C01A086072
:100B3800D5E700BF4004002018170020480800200F
:100B4800002961D0F8B50C460646FFF707FF54F8B0
:100B5800042C7B4FA4F1080522F0010105EB010CE0
:100B6800B868DCF80430604523F0030300F08B809C
:100B7800D207CCF8043032D454F8082CAD1A1144FA
:100B8800AA6807F1080082426AD00CEB0304D4F883
:100B980004E0EC68D4601EF0010FA26000F09780BA
:100BA80041F001036B60CCF80010B1F5007F35D23D
:100BB8007A68CB08480901210133814011437960E3
:100BC80007EBC30257F83310083AC5E9021247F891
:100BD8003350CD603046BDE8F840FFF7C1BE0CEB9E
:100BE80003025268D00710D4194407F10800DCF852
:100BF8000830834273D0DCF80C20DA60936041F04F
:100C080001036B606950D0E7704741F00103B1F50B
:100C1800007F44F8043CCCF80010C9D3B1F5206F2C
:100C28004FEA512348D28B0903F1390003F1380206
:100C3800C300F818FB580838984259D05A6822F06F
:100C480003028A4202D99B689842F7D1D868C5E95D
:100C580002308560DD603046BDE8F840FFF780BEB1
:100C68000CEB03025268D20763D40B44DCE902128E
:100C7800CA60916043F001026A603046EB50BDE8FB
:100C8800F840FFF76DBE0B44D10707D454F8082C81
:100C9800AD1A1344D5E90212CA60916043F001020B
:100CA8006A60284ABD6012689A4293D8264B30463B
:100CB8001968FFF7F5FE8DE7142B0AD9542B1FD8B6
:100CC8000B0B03F16F0003F16E02C300B1E7194487
:100CD8008DE703F15C0003F15B02C300A9E741F073
:100CE8000103C7E90455C5E902006B60695071E763
:100CF80079689210012404FA02F20A437A60A6E79E
:100D0800B3F5AA7F06D8CB0B03F1780003F177027D
:100D1800C3008EE740F25452934206D88B0C03F17D
:100D28007D0003F17C02C30083E74FF47E737E22CB
:100D38007FE741F001036B60CCF800104AE700BF81
:100D4800400400204C08002014170020FEE700BFD4
:100D580080B485B000AF78607B681B78FB607B68E7
:100D680001331B781B02FA681343FB607B6802336C
:100D78001B781B04FA681343FB607B6803331B78FA
:100D88001B06FA681343FB60FB6818461437BD4618
:100D980080BC704780B485B000AF78607B681B78F2
:100DA800FB607B6801331B781B02FA681343FB6006
:100DB8007B6802331B781B04FA681343FB60FB68EB
:100DC80018461437BD4680BC704780B588B000AF60
:100DD800786039600023FB613DE0FB699B003A685D
:100DE80013441846FFF7B4FF78617B6903F0553365
:100DF8003B617B695B0803F055333A6913443B61F7
:100E08000023BB6121E0BB699B003A6922FA03F326
:100E18001BB203F00303FB81BB699B0002333A69F1
:100E280022FA03F31BB203F00303BB81FA89BB89DF
:100E3800D31A99B2FB69DA00BB691A4409B27B6814
:100E480023F81210BB690133BB61BB69072BDAD9E0
:100E5800FB690133FB61FB691F2BBED900BF00BFD3
:100E68002037BD4680BD000080B588B000AF7860EF
:100E780039600023FB614CE0FA6913465B001344B8
:100E88003A6813441846FFF785FF78617A69254B5D
:100E980013403B617B695A08224B13403A6913445B
:100EA8003B617B699A081F4B13403A6913443B61C5
:100EB8000023BB6127E0BA6913465B0013445B005B
:100EC8001A463B69D3401BB203F00703FB81BA699A
:100ED80013465B0013445B0003333A6922FA03F3B9
:100EE8001BB203F00703BB81FA89BB89D31A99B2F5
:100EF800FB699A00BB691A4409B27B6823F812108F
:100F0800BB690133BB61BB69032BD4D9FB690133CE
:100F1800FB61FB693F2BAFD900BF00BF2037BD463F
:100F280080BD00BF4992240080B582B000AF7860D0
:100F3800396039687868FFF797FF00BF0837BD4602
:100F480080BD80B582B000AF786039603968786854
:100F5800FFF73BFF00BF0837BD4680BD2DE9F00312
:100F680086B000AF78604FF000004FF00001C7E98D
:100F780004010021F96022E07868F96801440978E1
:100F8800C9B200200C460546F968C900A1F120063F
:100F9800C1F1200005FA01F304FA06F6334324FAF6
:100FA80000F0034304FA01F2D7E9040140EA020819
:100FB80041EA0309C7E90489F9680131F960F96868
:100FC8000729D9D9D7E90423104619461837BD4649
:100FD800BDE8F0037047F0B486B000AFF860C7E929
:100FE800002300237B6119E07B69D900D7E900233E
:100FF800C1F12006A1F1200022FA01F403FA06F655
:10100800344323FA00F0044323FA01F5FA687B69B4
:101018001344E2B21A707B6901337B617B69072B49
:10102800E2D900BF00BF1837BD46F0BC70470000CA
:101038002DE9B00FADF68C3D00AF07F68833A3F568
:10104800F673186007F68833A3F5F6731B68D3E9BF
:10105800002307F67831C1E9002307F68833A3F5A2
:10106800F6731B68D3E9022307F53761C1E900234A
:1010780007F68833A3F5F6731B68D3E9042307F64C
:101088006831C1E9002307F68833A3F5F6731B68B6
:10109800D3E9062307F53661C1E9002307F688334B
:1010A800A3F5F6731B68D3E9082307F65831C1E99D
:1010B800002307F68833A3F5F6731B68D3E90A23E0
:1010C80007F53561C1E9002307F68833A3F5F67300
:1010D8001B68D3E90C2307F64831C1E9002307F65A
:1010E8008833A3F5F6731B68D3E90E2307F534613B
:1010F800C1E9002307F68833A3F5F6731B68D3E923
:10110800102307F63831C1E9002307F68833A3F521
:10111800F6731B68D3E9122307F53361C1E900238D
:1011280007F68833A3F5F6731B68D3E9142307F68B
:101138002831C1E9002307F68833A3F5F6731B6845
:10114800D3E9162307F53261C1E9002307F688338E
:10115800A3F5F6731B68D3E9182307F61831C1E91C
:10116800002307F68833A3F5F6731B68D3E91A231F
:1011780007F53161C1E9002307F68833A3F5F67353
:101188001B68D3E91C2307F60831C1E9002307F6D9
:101198008833A3F5F6731B68D3E91E2307F530617E
:1011A800C1E9002307F68833A3F5F6731B68D3E972
:1011B800202307F6F821C1E9002307F68833A3F5B1
:1011C800F6731B68D3E9222307F52F61C1E90023D1
:1011D80007F68833A3F5F6731B68D3E9242307F6CB
:1011E800E821C1E9002307F68833A3F5F6731B68E5
:1011F800D3E9262307F52E61C1E9002307F68833D2
:10120800A3F5F6731B68D3E9282307F6D821C1E9AB
:10121800002307F68833A3F5F6731B68D3E92A235E
:1012280007F52D61C1E9002307F68833A3F5F673A6
:101238001B68D3E92C2307F6C821C1E9002307F668
:101248008833A3F5F6731B68D3E92E2307F52C61C1
:10125800C1E9002307F68833A3F5F6731B68D3E9C1
:10126800302307F6B821C1E900230023C7F8843BDF
:1012780002F010BF07F67833D3E9000107F53563AC
:10128800D3E9002380EA020CC7F890C94B40C7F89D
:10129800943907F62833D3E9002307F51961D1E912
:1012A800000184468CEA020CC7F888C94B40C7F88D
:1012B8008C3907F53063D3E9002307F68811D1E9A3
:1012C800000184468CEA020CC7F880C94B40C7F875
:1012D800843907F6D823D3E9002307F51861D1E943
:1012E8000001844682EA0C0CC7F848C54B40C7F891
:1012F8004C3507F5A963D3E9002307F52B61C1E94C
:10130800002307F53763D3E9000107F64833D3E92B
:10131800002380EA020CC7F878C94B40C7F87C392B
:1013280007F53263D3E9002307F67811D1E9000104
:1013380084468CEA020CC7F870C94B40C7F8743968
:1013480007F6F823D3E9002307F51761D1E900016F
:1013580084468CEA020CC7F868C94B40C7F86C3958
:1013680007F52D63D3E9002307F66811D1E90001D9
:10137800844682EA0C0CC7F840C54B40C7F8443590
:1013880007F5A863D3E9002307F6A821C1E90023DC
:1013980007F66833D3E9000107F53463D3E900237E
:1013A80080EA020CC7F860C94B40C7F8643907F6F1
:1013B8001833D3E9002307F51661D1E90001844603
:1013C8008CEA020CC7F858C94B40C7F85C3907F5D6
:1013D8002F63D3E9002307F65811D1E900018446A9
:1013E8008CEA020CC7F850C94B40C7F8543907F6C5
:1013F800C823D3E9002307F51561D1E90001844624
:1014080082EA0C0CC7F838C54B40C7F83C3507F5DD
:10141800A763D3E9002307F52A61C1E9002307F58B
:101428003663D3E9000107F63833D3E9002380EAAD
:10143800020CC7F848C94B40C7F84C3907F5316367
:10144800D3E9002307F64811D1E9000184468CEA64
:10145800020CC7F840C94B40C7F8443907F6E823DF
:10146800D3E9002307F51461D1E9000184468CEA29
:10147800020CC7F838C94B40C7F83C3907F52C634C
:10148800D3E9002307F63811D1E90001844682EA3E
:101498000C0CC7F830C54B40C7F8343507F5A663C0
:1014A800D3E9002307F69821C1E9002307F658334A
:1014B800D3E9000107F53363D3E9002380EA020C7E
:1014C800C7F830C94B40C7F8343907F60833D3E9B1
:1014D800002307F51361D1E9000184468CEA020C68
:1014E800C7F828C94B40C7F82C3907F52E63D3E94C
:1014F800002307F62811D1E9000184468CEA020C82
:10150800C7F820C94B40C7F8243907F6B823D3E9F0
:10151800002307F51261D1E90001844682EA0C0C28
:10152800C7F828C54B40C7F82C3507F5A563D3E99C
:10153800002307F52961C1E90023D7F8A83ADA0F93
:10154800D7F8AC3A5B001343C7F81C39D7F8AC3A64
:10155800DA0FD7F8A83A5B001343C7F8183907F52C
:101568002963D3E9002307F61811D1E9000184465D
:1015780082EA0C0CC7F820C54B40C7F8243507F59C
:10158800A463D3E9002307F68821C1E90023D7F82B
:10159800A03ADA0FD7F8A43A5B001343C7F8143916
:1015A800D7F8A43ADA0FD7F8A03A5B001343C7F884
:1015B800103907F52B63D3E9002307F51161D1E949
:1015C8000001844682EA0C0CC7F818C54B40C7F8DE
:1015D8001C3507F5A363D3E9002307F52861C1E9A2
:1015E8000023D7F8983ADA0FD7F89C3A5B001343F0
:1015F800C7F80C39D7F89C3ADA0FD7F8983A5B0055
:101608001343C7F8083907F6A823D3E9002307F6D8
:101618000811D1E90001844682EA0C0CC7F810C50C
:101628004B40C7F8143507F5A263D3E9002307F642
:101638007821C1E90023D7F8903ADA0FD7F8943A1D
:101648005B001343C7F80439D7F8943ADA0FD7F890
:10165800903A5B001343C7F8003907F52A63D3E9CA
:10166800002307F51061D1E90001844682EA0C0CD9
:10167800C7F808C54B40C7F80C3507F5A163D3E98F
:10168800002307F52761C1E90023D7F8B03ADA0F3C
:10169800D7F8B43A5B001343C7F8FC38D7F8B43A24
:1016A800DA0FD7F8B03A5B001343C7F8F83807F6F3
:1016B8009823D3E9002307F6F801D1E9000184460D
:1016C80082EA0C0CC7F800C54B40C7F8043507F58B
:1016D800A063D3E9002307F66821C1E9002307F6D0
:1016E8007833D3E9000107F68823D3E9002380EA99
:1016F800020CC7F8F8C44B40C7F8FC3407F59F63E1
:10170800D3E9002307F67831C1E9002307F67833D7
:10171800D3E9002307F52B61C1E9002307F6483315
:10172800D3E9000107F52863D3E9002380EA020C16
:10173800C7F8F0C44B40C7F8F43407F59E63D3E903
:10174800002307F64831C1E90023D7F84C3B1A03B8
:10175800D7F8483B1B0D1343C7F8E834D7F8483B84
:101768001A03D7F84C3B1B0D1343C7F8EC3407F5A5
:101778009D63D3E9002307F6A821C1E9002307F6F2
:101788001833D3E9000107F67823D3E9002380EA68
:10179800020CC7F8E0C44B40C7F8E43407F59C6373
:1017A800D3E9002307F61831C1E90023D7F81C3B19
:1017B800DA02D7F8183B5B0D1343C7F8D834D7F8CB
:1017C800183BDA02D7F81C3B5B0D1343C7F8DC342F
:1017D80007F59B63D3E9002307F52A61C1E90023D4
:1017E80007F6E823D3E9000107F52763D3E90023C7
:1017F80080EA020CC7F8D0C44B40C7F8D43407F5C8
:101808009A63D3E9002307F6E821C1E90023D7F852
:10181800E83ADA0AD7F8EC3A5B051343C7F8CC3450
:10182800D7F8EC3ADA0AD7F8E83A5B051343C7F871
:10183800C83407F59963D3E9002307F69821C1E96D
:10184800002307F6B823D3E9000107F66823D3E994
:10185800002380EA020CC7F8C0C44B40C7F8C43460
:1018680007F59863D3E9002307F6B821C1E90023F7
:10187800D7F8B83A9A0CD7F8BC3A9B031343C7F881
:10188800BC34D7F8BC3A9A0CD7F8B83A9B03134340
:10189800C7F8B83407F59763D3E9002307F529613A
:1018A800C1E9002307F6A823D3E90023D143C7F8E9
:1018B800F018DB43C7F8F43807F52A63D3E90023A7
:1018C80007F50F61D1E9000184460CEA020CC7F85C
:1018D800E8C80B40C7F8EC3807F52B63D3E90023B9
:1018E80007F6E801D1E90001844682EA0C0CC7F842
:1018F800B0C44B40C7F8B43407F59663D3E9002366
:1019080007F52661C1E90023C74AD7F8843BDB0005
:101918001344D3E9000107F52663D3E9002382EADB
:10192800000CC7F8A8C44B40C7F8AC3407F595635A
:10193800D3E9002307F52661C1E9002307F52A63E7
:10194800D3E90023D143C7F8E018DB43C7F8E438EC
:1019580007F69823D3E9002307F50E61D1E90001C2
:1019680084460CEA020CC7F8D8C80B40C7F8DC3824
:1019780007F6A823D3E9002307F6D801D1E9000127
:10198800844682EA0C0CC7F8A0C44B40C7F8A434BC
:1019980007F59463D3E9002307F65821C1E900232A
:1019A80007F69823D3E90023D143C7F8D018DB43BF
:1019B800C7F8D43807F52963D3E9002307F50D6183
:1019C800D1E9000184460CEA020CC7F8C8C80B40EC
:1019D800C7F8CC3807F52A63D3E9002307F6C8010E
:1019E800D1E90001844682EA0C0CC7F898C44B4040
:1019F800C7F89C3407F59363D3E9002307F52561FD
:101A0800C1E9002307F52963D3E90023D143C7F8C7
:101A1800C018DB43C7F8C43807F52B63D3E90023A4
:101A280007F50C61D1E9000184460CEA020CC7F8FD
:101A3800B8C80B40C7F8BC3807F69823D3E9002389
:101A480007F6B801D1E90001844682EA0C0CC7F810
:101A580090C44B40C7F8943407F59263D3E9002348
:101A680007F64821C1E9002307F52B63D3E90023D2
:101A7800D143C7F8B018DB43C7F8B43807F6A82332
:101A8800D3E9002307F50B61D1E9000184460CEA8C
:101A9800020CC7F8A8C80B40C7F8AC3807F529638B
:101AA800D3E9002307F6A801D1E90001844682EAB8
:101AB8000C0CC7F888C44B40C7F88C3407F5916301
:101AC800D3E9002307F52461C1E9002307F536634C
:101AD800D3E9000107F52763D3E9002380EA020C64
:101AE800C7F880C44B40C7F8843407F59063D3E93E
:101AF800002307F53661C1E90023D7F8603B1A09CE
:101B0800D7F8643B1B071343C7F87C34D7F8643B0A
:101B18001A09D7F8603B1B071343C7F8783407F551
:101B28008F63D3E9002307F52B61C1E9002307F58B
:101B38003363D3E9000107F66823D3E9002380EA79
:101B4800020CC7F870C44B40C7F8743407F58E63AD
:101B5800D3E9002307F53361C1E90023D7F8303B07
:101B68001A0BD7F8343B1B051343C7F86C34D7F866
:101B7800343B1A0BD7F8303B1B051343C7F86834BE
:101B880007F58D63D3E9002307F6A821C1E90023EF
:101B980007F62833D3E9000107F68823D3E90023A1
:101BA80080EA020CC7F860C44B40C7F8643407F5F4
:101BB8008C63D3E9002307F62831C1E90023D7F85D
:101BC800283B5A0FD7F82C3BDB001343C7F85C348B
:101BD800D7F82C3B5A0FD7F8283BDB001343C7F83C
:101BE800583407F58B63D3E9002307F52A61C1E967
:101BF800002307F6F823D3E9000107F52863D3E9A2
:101C0800002380EA020CC7F850C44B40C7F854348C
:101C180007F58A63D3E9002307F6F821C1E9002311
:101C2800D7F8FC3A5A0301E0C0850008D7F8F83A1B
:101C3800DB0C1343C7F84834D7F8F83A5A03D7F8F7
:101C4800FC3ADB0C1343C7F84C3407F58963D3E936
:101C5800002307F69821C1E9002307F6C823D3E932
:101C6800000107F67823D3E9002380EA020CC7F8BD
:101C780040C44B40C7F8443407F58863D3E90023D0
:101C880007F6C821C1E90023D7F8CC3A5A07D7F894
:101C9800C83ADB081343C7F83834D7F8C83A5A07A4
:101CA800D7F8CC3ADB081343C7F83C3407F5876309
:101CB800D3E9002307F52961C1E9002307F6A82322
:101CC800D3E90023D143C7F8A018DB43C7F8A438E9
:101CD80007F52A63D3E9002307F50A61D1E9000172
:101CE80084460CEA020CC7F898C80B40C7F89C3821
:101CF80007F52B63D3E9002307F69801D1E9000122
:101D0800844682EA0C0CC7F830C44B40C7F8343418
:101D180007F58663D3E9002307F63821C1E90023D4
:101D280007F52A63D3E90023D143C7F89018DB43AA
:101D3800C7F8943807F69823D3E9002307F5096113
:101D4800D1E9000184460CEA020CC7F888C80B40A8
:101D5800C7F88C3807F6A823D3E9002307F68801CB
:101D6800D1E90001844682EA0C0CC7F828C44B402C
:101D7800C7F82C3407F58563D3E9002307F52361F9
:101D8800C1E9002307F69823D3E90023D143C7F814
:101D98008018DB43C7F8843807F52963D3E90023A3
:101DA80007F50861D1E9000184460CEA020CC7F87E
:101DB80078C80B40C7F87C3807F52A63D3E90023B5
:101DC80007F67801D1E90001844682EA0C0CC7F8CD
:101DD80020C44B40C7F8243407F58463D3E90023B3
:101DE80007F62821C1E9002307F52963D3E9002371
:101DF800D143C7F87018DB43C7F8743807F52B636D
:101E0800D3E9002307F50761D1E9000184460CEA0C
:101E1800020CC7F868C80B40C7F86C3807F6982357
:101E2800D3E9002307F66801D1E90001844682EA74
:101E38000C0CC7F818C44B40C7F81C3407F583636B
:101E4800D3E9002307F52261C1E9002307F52B63D5
:101E5800D3E90023D143C7F86018DB43C7F86438D7
:101E680007F6A823D3E9002307F50661D1E90001A5
:101E780084460CEA020CC7F858C80B40C7F85C380F
:101E880007F52963D3E9002307F65801D1E90001D2
:101E9800844682EA0C0CC7F810C44B40C7F81434C7
:101EA80007F58263D3E9002307F61821C1E9002367
:101EB80007F53763D3E9000107F52863D3E9002361
:101EC80080EA020CC7F808C44B40C7F80C3407F581
:101ED8008163D3E9002307F53761C1E90023D7F807
:101EE800703BDA0FD7F8743B5B001343C7F8043430
:101EF800D7F8743BDA0FD7F8703B5B001343C7F889
:101F0800003407F58063D3E9002307F52B61C1E9A5
:101F1800002307F53463D3E9000107F67823D3E9F2
:101F2800002380EA020CC7F8F8C34B40C7F8FC331B
:101F3800D7E9FE2307F53461C1E90023D7F8403B10
:101F48009A0ED7F8443B9B011343C7F8F433D7F8EC
:101F5800443B9A0ED7F8403B9B011343C7F8F03334
:101F6800D7E9FC2307F6A821C1E9002307F5316367
:101F7800D3E9000107F52763D3E9002380EA020CBF
:101F8800C7F8E8C34B40C7F8EC33D7E9FA2307F59D
:101F98003161C1E90023D7F8103BDA09D7F8143BBF
:101FA8005B061343C7F8E433D7F8143BDA09D7F8CC
:101FB800103B5B061343C7F8E033D7E9F82307F56E
:101FC8002A61C1E9002307F52E63D3E9000107F66A
:101FD8006823D3E9002380EA020CC7F8D8C34B4032
:101FE800C7F8DC33D7E9F62307F52E61C1E90023EA
:101FF800D7F8E03A1A0ED7F8E43A1B021343C7F8A9
:10200800D433D7F8E43A1A0ED7F8E03A1B02134350
:10201800C7F8D033D7E9F42307F69821C1E900239C
:1020280007F6D823D3E9000107F68823D3E900236C
:1020380080EA020CC7F8C8C34B40C7F8CC33D7E9CD
:10204800F22307F6D821C1E90023D7F8D83A9A0B2A
:10205800D7F8DC3A9B041343C7F8C433D7F8DC3A03
:102068009A0BD7F8D83A9B041343C7F8C033D7E97B
:10207800F02307F52961C1E9002307F6A823D3E96E
:102088000023D143C7F85018DB43C7F8543807F585
:102098002A63D3E9002307F50561D1E900018446E5
:1020A8000CEA020CC7F848C80B40C7F84C3807F5CB
:1020B8002B63D3E9002307F64801D1E900018446E0
:1020C80082EA0C0CC7F8B8C34B40C7F8BC33D7E951
:1020D800EE2307F52161C1E9002307F52A63D3E957
:1020E8000023D143C7F84018DB43C7F8443807F644
:1020F8009823D3E9002307F50461D1E90001844658
:102108000CEA020CC7F838C80B40C7F83C3807F689
:10211800A823D3E9002307F63801D1E90001844652
:1021280082EA0C0CC7F8B0C34B40C7F8B433D7E900
:10213800EC2307F60821C1E9002307F69823D3E921
:102148000023D143C7F83018DB43C7F8343807F504
:102158002963D3E9002307F50361D1E90001844627
:102168000CEA020CC7F828C80B40C7F82C3807F54A
:102178002A63D3E9002307F62801D1E90001844640
:1021880082EA0C0CC7F8A8C34B40C7F8AC33D7E9B0
:10219800EA2307F52061C1E9002307F52963D3E99C
:1021A8000023D143C7F82018DB43C7F8243807F5C4
:1021B8002B63D3E9002307F50261D1E900018446C6
:1021C8000CEA020CC7F818C80B40C7F81C3807F609
:1021D8009823D3E9002307F61801D1E900018446C2
:1021E80082EA0C0CC7F8A0C34B40C7F8A433D7E960
:1021F800E82307F6F811C1E9002307F52B63D3E9B3
:102208000023D143C7F81018DB43C7F8143807F682
:10221800A823D3E9002307F50161D1E90001844629
:102228000CEA020CC7F808C80B40C7F80C3807F5C9
:102238002963D3E9002307F60801D1E900018446A0
:1022480082EA0C0CC7F898C34B40C7F89C33D7E90F
:10225800E62307F51F61C1E9002307F65833D3E9E0
:10226800000107F66823D3E9002380EA020CC7F8C7
:1022780090C34B40C7F89433D7E9E42307F65831A5
:10228800C1E90023D7F8583B5A09D7F85C3BDB066D
:102298001343C7F88C33D7F85C3B5A09D7F8583B37
:1022A800DB061343C7F88833D7E9E22307F52B6128
:1022B800C1E9002307F53563D3E9000107F6882350
:1022C800D3E9002380EA020CC7F880C34B40C7F863
:1022D8008433D7E9E02307F53561C1E90023D7F84E
:1022E800543B1A01D7F8503B1B0F1343C7F87833F8
:1022F800D7F8503B1A01D7F8543B1B0F1343C7F8C4
:102308007C33D7E9DE2307F6A821C1E9002307F5C6
:102318003263D3E9000107F52863D3E9002380EA93
:10232800020CC7F870C34B40C7F87433D7E9DC23F5
:1023380007F53261C1E90023D7F8203B9A0DD7F899
:10234800243B9B021343C7F86C33D7F8243B9A0D00
:10235800D7F8203B9B021343C7F86833D7E9DA2341
:1023680007F52A61C1E9002307F52F63D3E90001C6
:1023780007F67823D3E9002380EA020CC7F860C384
:102388004B40C7F86433D7E9D82307F52F61C1E973
:102398000023D7F8F03A5A0CD7F8F43ADB03134382
:1023A800C7F85C33D7F8F43A5A0CD7F8F03ADB039D
:1023B8001343C7F85833D7E9D62307F69821C1E95C
:1023C800002307F52C63D3E9000107F52763D3E958
:1023D800002380EA020CC7F850C34B40C7F85433B7
:1023E800D7E9D42307F52C61C1E90023D7F8C43A0B
:1023F8001A06D7F8C03A1B0A1343C7F84833D7F868
:10240800C03A1A06D7F8C43A1B0A1343C7F84C3324
:10241800D7E9D22307F52961C1E9002307F6A823E4
:10242800D3E90023D143C7F80018DB43C7F80438C1
:1024380007F52A63D3E9002307F50061D1E9000114
:1024480084460CEA020CC7F8F8C70B40C7F8FC37FB
:1024580007F52B63D3E9002307F5FF61D1E90001F4
:10246800844682EA0C0CC7F840C34B40C7F8443393
:10247800D7E9D02307F6E811C1E9002307F52A6355
:10248800D3E90023D143C7F8F017DB43C7F8F43783
:1024980007F69823D3E9002307F5FE61D1E9000187
:1024A80084460CEA020CC7F8E8C70B40C7F8EC37BB
:1024B80007F6A823D3E9002307F5FD61D1E9000158
:1024C800844682EA0C0CC7F838C34B40C7F83C3343
:1024D800D7E9CE2307F51E61C1E9002307F6982343
:1024E800D3E90023D143C7F8E017DB43C7F8E43743
:1024F80007F52963D3E9002307F5FC61D1E9000159
:1025080084460CEA020CC7F8D8C70B40C7F8DC377A
:1025180007F52A63D3E9002307F5FB61D1E9000138
:10252800844682EA0C0CC7F830C34B40C7F83433F2
:10253800D7E9CC2307F6D811C1E9002307F52963A9
:10254800D3E90023D143C7F8D017DB43C7F8D43702
:1025580007F52B63D3E9002307F5FA61D1E90001F8
:1025680084460CEA020CC7F8C8C70B40C7F8CC373A
:1025780007F69823D3E9002307F5F961D1E90001AB
:10258800844682EA0C0CC7F828C34B40C7F82C33A2
:10259800D7E9CA2307F51D61C1E9002307F52B63B5
:1025A800D3E90023D143C7F8C017DB43C7F8C437C2
:1025B80007F6A823D3E9002307F5F861D1E900015C
:1025C80084460CEA020CC7F8B8C70B40C7F8BC37FA
:1025D80007F52963D3E9002307F5F761D1E900017D
:1025E800844682EA0C0CC7F820C34B40C7F8243352
:1025F800D7E9C82307F6C811C1E9002307F66833ED
:10260800D3E9000107F67823D3E9002380EA020C16
:10261800C7F818C34B40C7F81C33D7E9C62307F6D9
:102628006831C1E90023D7F86C3B9A07D7F8683BB3
:102638009B081343C7F81033D7F8683B9A07D7F8B5
:102648006C3B9B081343C7F81433D7E9C42307F539
:102658002B61C1E9002307F63833D3E9000107F5F8
:102668002763D3E9002380EA020CC7F808C34B406C
:10267800C7F80C33D7E9C22307F63831C1E900237C
:10268800D7F83C3BDA05D7F8383B5B0A1343C7F861
:102698000033D7F8383BDA05D7F83C3B5B0A1343DD
:1026A800C7F80433D7E9C02307F6A821C1E90023F6
:1026B80007F60833D3E9000107F66823D3E90023B6
:1026C80080EA020CC7F8F8C24B40C7F8FC32D7E9D9
:1026D800BE2307F60831C1E90023D7F80C3BDA011D
:1026E800D7F8083B5B0E1343C7F8F032D7F8083B1E
:1026F800DA01D7F80C3B5B0E1343C7F8F432D7E97D
:10270800BC2307F52A61C1E9002307F53063D3E943
:10271800000107F68823D3E9002380EA020CC7F8F2
:10272800E8C24B40C7F8EC32D7E9BA2307F5306165
:10273800C1E90023D7F8043B5A02D7F8003BDB0D68
:102748001343C7F8E032D7F8003B5A02D7F8043BE6
:10275800DB0D1343C7F8E432D7E9B82307F698210D
:10276800C1E9002307F52D63D3E9000107F52863C4
:10277800D3E9002380EA020CC7F8D8C24B40C7F857
:10278800DC32D7E9B62307F52D61C1E90023D7F874
:10279800D03A9A0FD7F8D43A9B001343C7F8D432EB
:1027A800D7F8D43A9A0FD7F8D03A9B001343C7F812
:1027B800D032D7E9B42307F52961C1E9002307F628
:1027C800A823D3E90023D143C7F8B017DB43C7F8E0
:1027D800B43707F52A63D3E9002307F5F661D1E991
:1027E800000184460CEA020CC7F8A8C70B40C7F8DA
:1027F800AC3707F52B63D3E9002307F5F561D1E979
:102808000001844682EA0C0CC7F8C8C24B40C7F8DE
:10281800CC32D7E9B22307F51C61C1E9002307F5DB
:102828002A63D3E90023D143C7F8A017DB43C7F8CD
:10283800A43707F69823D3E9002307F5F461D1E913
:10284800000184460CEA020CC7F898C70B40C7F889
:102858009C3707F6A823D3E9002307F5F361D1E9EC
:102868000001844682EA0C0CC7F8C0C24B40C7F886
:10287800C432D7E9B02307F6B811C1E9002307F637
:102888009823D3E90023D143C7F89017DB43C7F84F
:10289800943707F52963D3E9002307F5F261D1E9F5
:1028A800000184460CEA020CC7F888C70B40C7F839
:1028B8008C3707F52A63D3E9002307F5F161D1E9DD
:1028C8000001844682EA0C0CC7F8B8C24B40C7F82E
:1028D800BC32D7E9AE2307F51B61C1E9002307F530
:1028E8002963D3E90023D143C7F88017DB43C7F82E
:1028F800843707F52B63D3E9002307F5F061D1E9A5
:10290800000184460CEA020CC7F878C70B40C7F8E8
:102918007C3707F69823D3E9002307F5EF61D1E95F
:102928000001844682EA0C0CC7F8B0C24B40C7F8D5
:10293800B432D7E9AC2307F6A811C1E9002307F59B
:102948002B63D3E90023D143C7F87017DB43C7F8DB
:10295800743707F6A823D3E9002307F5EE61D1E918
:10296800000184460CEA020CC7F868C70B40C7F898
:102978006C3707F52963D3E9002307F5ED61D1E941
:102988000001844682EA0C0CC7F8A8C24B40C7F87D
:10299800AC32D7E9AA2307F51A61C1E9002307F584
:1029A8002663D3E9000107F63823D3E9002380EA38
:1029B800020CC7F860C74B40C7F8643707F52163B6
:1029C800D3E9002307F5EC61D1E9000184468CEADC
:1029D800020CC7F858C74B40C7F85C3707F6E8132E
:1029E800D3E9002307F5EB61D1E9000184468CEABD
:1029F800020CC7F850C74B40C7F8543707F51C639B
:102A0800D3E9002307F5EA61D1E90001844682EAA7
:102A18000C0CC7F8A0C24B40C7F8A432D7E9A823CA
:102A280007F52B61C1E9002307F65823D3E9000114
:102A380007F52363D3E9002380EA020CC7F848C7E7
:102A48004B40C7F84C3707F60823D3E9002307F5AE
:102A5800E961D1E9000184468CEA020CC7F840C755
:102A68004B40C7F8443707F51E63D3E9002307F541
:102A7800E861D1E9000184468CEA020CC7F838C73E
:102A88004B40C7F83C3707F6B813D3E9002307F5DE
:102A9800E761D1E90001844682EA0C0CC7F898C2C4
:102AA8004B40C7F89C32D7E9A62307F6A821C1E90D
:102AB800002307F52563D3E9000107F62823D3E9A6
:102AC800002380EA020CC7F830C74B40C7F83437F8
:102AD80007F52063D3E9002307F5E661D1E9000192
:102AE80084468CEA020CC7F828C74B40C7F82C3735
:102AF80007F6D813D3E9002307F5E561D1E900010A
:102B080084468CEA020CC7F820C74B40C7F8243724
:102B180007F51B63D3E9002307F5E461D1E9000158
:102B2800844682EA0C0CC7F890C24B40C7F894322E
:102B3800D7E9A42307F52A61C1E9002307F648234A
:102B4800D3E9000107F52263D3E9002380EA020CE8
:102B5800C7F818C74B40C7F81C3707F6F813D3E96E
:102B6800002307F5E361D1E9000184468CEA020CF1
:102B7800C7F810C74B40C7F8143707F51D63D3E9EA
:102B8800002307F5E261D1E9000184468CEA020CD2
:102B9800C7F808C74B40C7F80C3707F6A813D3E99E
:102BA800002307F5E161D1E90001844682EA0C0CB3
:102BB800C7F888C24B40C7F88C32D7E9A22307F67A
:102BC8009821C1E9002307F52463D3E9000107F63A
:102BD8001823D3E9002380EA020CC7F800C74B404A
:102BE800C7F8043707F51F63D3E9002307F5E06149
:102BF800D1E9000184468CEA020CC7F8F8C64B40BC
:102C0800C7F8FC3607F6C813D3E9002307F5DF61D8
:102C1800D1E9000184468CEA020CC7F8F0C64B40A3
:102C2800C7F8F43607F51A63D3E9002307F5DE6120
:102C3800D1E90001844682EA0C0CC7F880C24B40F7
:102C4800C7F88432D7E9A02307F52961C1E9002331
:102C5800D7F8A83ADA0FD7F8AC3A5B001343C7F8AD
:102C6800EC36D7F8AC3ADA0FD7F8A83A5B0013433A
:102C7800C7F8E83607F52963D3E9002307F5DD61CE
:102C8800D1E90001844682EA0C0CC7F878C24B40AF
:102C9800C7F87C32D7E99E2307F68821C1E90023CB
:102CA800D7F8A03ADA0FD7F8A43A5B001343C7F86D
:102CB800E436D7F8A43ADA0FD7F8A03A5B00134302
:102CC800C7F8E03607F52B63D3E9002307F5DC6185
:102CD800D1E90001844682EA0C0CC7F870C24B4067
:102CE800C7F87432D7E99C2307F52861C1E90023A6
:102CF800D7F8983ADA0FD7F89C3A5B001343C7F82D
:102D0800DC36D7F89C3ADA0FD7F8983A5B001343C9
:102D1800C7F8D83607F6A823D3E9002307F5DB61FF
:102D2800D1E90001844682EA0C0CC7F868C24B401E
:102D3800C7F86C32D7E99A2307F67821C1E900234E
:102D4800D7F8903ADA0FD7F8943A5B001343C7F8EC
:102D5800D436D7F8943ADA0FD7F8903A5B00134391
:102D6800C7F8D03607F52A63D3E9002307F5DA61F7
:102D7800D1E90001844682EA0C0CC7F860C24B40D6
:102D8800C7F86432D7E9982307F52761C1E900231A
:102D9800D7F8B03ADA0FD7F8B43A5B001343C7F85C
:102DA800CC36D7F8B43ADA0FD7F8B03A5B00134309
:102DB800C7F8C83607F69823D3E9002307F5D96181
:102DC800D1E90001844682EA0C0CC7F858C24B408E
:102DD800C7F85C32D7E9962307F66821C1E90023D2
:102DE80007F52663D3E9000107F68823D3E9002312
:102DF80080EA020CC7F850C24B40C7F85432D7E9F2
:102E0800942307F52661C1E9002307F52663D3E972
:102E1800002307F52B61C1E9002307F52363D3E9F4
:102E2800000107F52863D3E9002380EA020CC7F8FC
:102E380048C24B40C7F84C32D7E9922307F52361C3
:102E4800C1E9002307F68833A3F5AA7007F688338B
:102E5800A3F5AC7103681A030B681B0D1343C7F87D
:102E680040320B681A0303681B0D1343C7F844323A
:102E7800D7E9902307F6A821C1E9002307F52063C5
:102E8800D3E9000107F67823D3E9002380EA020C8E
:102E9800C7F838C24B40C7F83C32D7E98E2307F54C
:102EA8002061C1E9002307F68833A3F5C27007F64D
:102EB8008833A3F5C4710368DA020B685B0D13430A
:102EC800C7F830320B68DA0203685B0D1343C7F8A2
:102ED8003432D7E98C2307F52A61C1E9002307F5C5
:102EE8001D63D3E9000107F52763D3E9002380EACE
:102EF800020CC7F828C24B40C7F82C32D7E98A23FE
:102F080007F51D61C1E9002307F68833A3F5DC70D6
:102F180007F68833A3F5DA710368DA0A0B685B05EC
:102F28001343C7F824320B68DA0A03685B051343B6
:102F3800C7F82032D7E9882307F69821C1E900238A
:102F480007F51A63D3E9000107F66823D3E90023DC
:102F580080EA020CC7F818C24B40C7F81C32D7E900
:102F6800862307F51A61C1E9002307F68833A3F51C
:102F7800F47007F68833A3F5F27103689A0C0B68AE
:102F88009B031343C7F814320B689A0C03689B031E
:102F98001343C7F81032D7E9842307F52961C1E93B
:102FA800002307F6A823D3E90023D143C7F8C016A6
:102FB800DB43C7F8C43607F52A63D3E9002307F5CE
:102FC800D861D1E9000184460CEA020CC7F8B8C6FA
:102FD8000B40C7F8BC3607F52B63D3E9002307F588
:102FE800D761D1E90001844682EA0C0CC7F808C20F
:102FF8004B40C7F80C32D7E9822307F67831C1E98C
:103008000023D7F8843B0133C14ADB001344D3E9DA
:10301800000107F67833D3E9002382EA000CC7F8E9
:1030280000C24B40C7F80432D7E9802307F678314D
:10303800C1E9002307F52A63D3E90023D143C7F880
:10304800B016DB43C7F8B43607F69823D3E9002354
:1030580007F5D661D1E9000184460CEA020CC7F8ED
:10306800A8C60B40C7F8AC3607F6A823D3E9002357
:1030780007F5D561D1E90001844682EA0C0CC7F84E
:10308800F8C14B40C7F8FC31D7E97E2307F5376113
:10309800C1E9002307F69823D3E90023D143C7F8F1
:1030A800A016DB43C7F8A43607F52963D3E9002344
:1030B80007F5D461D1E9000184460CEA020CC7F88F
:1030C80098C60B40C7F89C3607F52A63D3E9002356
:1030D80007F5D361D1E90001844682EA0C0CC7F8F0
:1030E800F0C14B40C7F8F431D7E97C2307F66831C3
:1030F800C1E9002307F52963D3E90023D143C7F8C1
:103108009016DB43C7F8943607F52B63D3E9002301
:1031180007F5D261D1E9000184460CEA020CC7F830
:1031280088C60B40C7F88C3607F69823D3E90023E6
:1031380007F5D161D1E90001844682EA0C0CC7F891
:10314800E8C14B40C7F8EC31D7E97A2307F5366177
:10315800C1E9002307F52B63D3E90023D143C7F85E
:103168008016DB43C7F8843607F6A823D3E9002383
:1031780007F5D061D1E9000184460CEA020CC7F8D2
:1031880078C60B40C7F87C3607F52963D3E90023D6
:1031980007F5CF61D1E90001844682EA0C0CC7F833
:1031A800E0C14B40C7F8E431D7E9782307F6583136
:1031B800C1E9002307F64823D3E9000107F527638F
:1031C800D3E9002380EA020CC7F8D8C14B40C7F8FE
:1031D800DC31D7E9762307F64821C1E9002307F651
:1031E8008833A3F5A07007F68833A3F59E710368AA
:1031F8001A090B681B071343C7F8D4310B681A095F
:1032080003681B071343C7F8D031D7E9742307F5C0
:103218002B61C1E9002307F61823D3E9000107F65B
:103228006823D3E9002380EA020CC7F8C8C14B40E1
:10323800C7F8CC31D7E9722307F61821C1E9002372
:1032480007F68833A3F5B87007F68833A3F5B67187
:1032580003681A0B0B681B051343C7F8C4310B68C6
:103268001A0B03681B051343C7F8C031D7E970234D
:1032780007F6A821C1E9002307F52163D3E9000176
:1032880007F68823D3E9002380EA020CC7F8B8C1FF
:103298004B40C7F8BC31D7E96E2307F52161C1E976
:1032A800002307F68833A3F5BC7007F68833A3F527
:1032B800BA7103685A0F0B68DB001343C7F8B431BF
:1032C8000B685A0F0368DB001343C7F8B031D7E91E
:1032D8006C2307F52A61C1E9002307F51E63D3E9CA
:1032E800000107F52863D3E9002380EA020CC7F838
:1032F800A8C14B40C7F8AC31D7E96A2307F51E616E
:10330800C1E9002307F68833A3F5D27002E000BFB5
:10331800C085000807F68833A3F5D47103685A03FB
:103328000B68DB0C1343C7F8A0310B685A0303681A
:10333800DB0C1343C7F8A431D7E9682307F69821B3
:10334800C1E9002307F51B63D3E9000107F67823D9
:10335800D3E9002380EA020CC7F898C14B40C7F8AC
:103368009C31D7E9662307F51B61C1E9002307F6FD
:103378008833A3F5EA7007F68833A3F5EC71036880
:103388005A070B68DB081343C7F890310B685A07D4
:103398000368DB081343C7F89431D7E9642307F5BA
:1033A8002961C1E9002307F6A823D3E90023D14303
:1033B800C7F87016DB43C7F8743607F52A63D3E9F4
:1033C800002307F5CE61D1E9000184460CEA020C1E
:1033D800C7F868C60B40C7F86C3607F52B63D3E906
:1033E800002307F5CD61D1E90001844682EA0C0C7F
:1033F800C7F888C14B40C7F88C31D7E9622307F575
:103408003561C1E9002307F52A63D3E90023D143D5
:10341800C7F86016DB43C7F8643607F69823D3E984
:10342800002307F5CC61D1E9000184460CEA020CBF
:10343800C7F858C60B40C7F85C3607F6A823D3E987
:10344800002307F5CB61D1E90001844682EA0C0C20
:10345800C7F880C14B40C7F88431D7E9602307F625
:103468004831C1E9002307F69823D3E90023D14363
:10347800C7F85016DB43C7F8543607F52963D3E974
:10348800002307F5CA61D1E9000184460CEA020C61
:10349800C7F848C60B40C7F84C3607F52A63D3E986
:1034A800002307F5C961D1E90001844682EA0C0CC2
:1034B800C7F878C14B40C7F87C31D7E95E2307F5D8
:1034C8003461C1E9002307F52963D3E90023D14317
:1034D800C7F84016DB43C7F8443607F52B63D3E932
:1034E800002307F5C861D1E9000184460CEA020C03
:1034F800C7F838C60B40C7F83C3607F69823D3E917
:10350800002307F5C761D1E90001844682EA0C0C63
:10351800C7F870C14B40C7F87431D7E95C2307F688
:103528003831C1E9002307F52B63D3E90023D143E0
:10353800C7F83016DB43C7F8343607F6A823D3E9B3
:10354800002307F5C661D1E9000184460CEA020CA4
:10355800C7F828C60B40C7F82C3607F52963D3E906
:10356800002307F5C561D1E90001844682EA0C0C05
:10357800C7F868C14B40C7F86C31D7E95A2307F53B
:103588003361C1E9002307F65823D3E9000107F5A1
:103598002863D3E9002380EA020CC7F860C14B40D6
:1035A800C7F86431D7E9582307F65821C1E9002341
:1035B80007F68833A3F5987007F68833A3F5967154
:1035C8000368DA0F0B685B001343C7F85C310B68BC
:1035D800DA0F03685B001343C7F85831D7E956235D
:1035E80007F52B61C1E9002307F62823D3E9000179
:1035F80007F67823D3E9002380EA020CC7F850C104
:103608004B40C7F85431D7E9542307F62821C1E9BC
:10361800002307F68833A3F5B07007F68833A3F5BF
:10362800AE7103689A0E0B689B011343C7F84C31BF
:103638000B689A0E03689B011343C7F84831D7E912
:10364800522307F6A821C1E9002307F6F813D3E9A6
:10365800000107F52763D3E9002380EA020CC7F8C5
:1036680040C14B40C7F84431D7E9502307F6F81159
:10367800C1E9002307F68833A3F5C87007F6883335
:10368800A3F5C6710368DA090B685B061343C7F82C
:103698003C310B68DA0903685B061343C7F8383115
:1036A800D7E94E2307F52A61C1E9002307F6C813B5
:1036B800D3E9000107F66823D3E9002380EA020C66
:1036C800C7F830C14B40C7F83431D7E94C2307F667
:1036D800C811C1E9002307F68833A3F5E07007F69F
:1036E8008833A3F5DE7103681A0E0B681B021343B7
:1036F800C7F82C310B681A0E03681B021343C7F86E
:103708002831D7E94A2307F69821C1E9002307F5AC
:103718001C63D3E9000107F68823D3E9002380EA74
:10372800020CC7F820C14B40C7F82431D7E9482319
:1037380007F51C61C1E9002307F68833A3F5E47097
:1037480007F68833A3F5E27103689A0B0B689B04AC
:103758001343C7F81C310B689A0B03689B04134387
:10376800C7F81831D7E9462307F52961C1E90023CD
:1037780007F6A823D3E90023D143C7F82016DB4373
:10378800C7F8243607F52A63D3E9002307F5C4618F
:10379800D1E9000184460CEA020CC7F818C60B40B0
:1037A800C7F81C3607F52B63D3E9002307F5C36177
:1037B800D1E90001844682EA0C0CC7F810C14B40DD
:1037C800C7F81431D7E9442307F62831C1E90023A3
:1037D80007F52A63D3E90023D143C7F81016DB4362
:1037E800C7F8143607F69823D3E9002307F5C26112
:1037F800D1E9000184460CEA020CC7F808C60B4060
:10380800C7F80C3607F6A823D3E9002307F5C161EA
:10381800D1E90001844682EA0C0CC7F808C14B4084
:10382800C7F80C31D7E9422307F53261C1E9002313
:1038380007F69823D3E90023D143C7F80016DB43E2
:10384800C7F8043607F52963D3E9002307F5C061F3
:10385800D1E9000184460CEA020CC7F8F8C50B4010
:10386800C7F8FC3507F52A63D3E9002307F5BF61DC
:10387800D1E90001844682EA0C0CC7F800C14B402C
:10388800C7F80431D7E9402307F61831C1E9002306
:1038980007F52963D3E90023D143C7F8F015DB43C3
:1038A800C7F8F43507F52B63D3E9002307F5BE61A4
:1038B800D1E9000184460CEA020CC7F8E8C50B40C0
:1038C800C7F8EC3507F69823D3E9002307F5BD615F
:1038D800D1E90001844682EA0C0CC7F8F8C04B40D5
:1038E800C7F8FC30D7E93E2307F53161C1E9002369
:1038F80007F52B63D3E90023D143C7F8E015DB4371
:10390800C7F8E43507F6A823D3E9002307F5BC6117
:10391800D1E9000184460CEA020CC7F8D8C50B406F
:10392800C7F8DC3507F52963D3E9002307F5BB6140
:10393800D1E90001844682EA0C0CC7F8F0C04B407C
:10394800C7F8F430D7E93C2307F60831C1E900236A
:1039580007F52463D3E9000107F66823D3E90023B8
:1039680080EA020CC7F8E8C04B40C7F8EC30D7E94A
:103978003A2307F52461C1E9002307F68833A3F544
:10398800A47007F68833A3F5A27103685A090B6877
:10399800DB061343C7F8E4300B685A090368DB06F3
:1039A8001343C7F8E030D7E9382307F52B61C1E99D
:1039B800002307F63823D3E9000107F68823D3E963
:1039C800002380EA020CC7F8D8C04B40C7F8DC30A7
:1039D800D7E9362307F63821C1E9002307F68833EB
:1039E800A3F5A67007F68833A3F5A87103681A0132
:1039F8000B681B0F1343C7F8D0300B681A01036814
:103A08001B0F1343C7F8D430D7E9342307F6A8218E
:103A1800C1E9002307F60823D3E9000107F5286365
:103A2800D3E9002380EA020CC7F8C8C04B40C7F8A6
:103A3800CC30D7E9322307F60821C1E9002307F67D
:103A48008833A3F5C07007F68833A3F5BE71036801
:103A58009A0D0B689B021343C7F8C4300B689A0D84
:103A680003689B021343C7F8C030D7E9302307F532
:103A78002A61C1E9002307F6D813D3E9000107F644
:103A88007823D3E9002380EA020CC7F8B8C04B407A
:103A9800C7F8BC30D7E92E2307F6D811C1E90023AF
:103AA80007F68833A3F5D87007F68833A3F5D671DF
:103AB80003685A0C0B68DB031343C7F8B4300B6870
:103AC8005A0C0368DB031343C7F8B030D7E92C233B
:103AD80007F69821C1E9002307F6A813D3E90001E6
:103AE80007F52763D3E9002380EA020CC7F8A8C0CA
:103AF8004B40C7F8AC30D7E92A2307F6A811C1E92B
:103B0800002307F68833A3F5EE7007F68833A3F58C
:103B1800F07103681A060B681B0A1343C7F8A03034
:103B28000B681A0603681B0A1343C7F8A430D7E9C1
:103B3800282307F52961C1E9002307F6A823D3E95B
:103B48000023D143C7F8D015DB43C7F8D43507F5B0
:103B58002A63D3E9002307F5BA61D1E90001844655
:103B68000CEA020CC7F8C8C50B40C7F8CC3507F5F6
:103B78002B63D3E9002307F5B961D1E90001844635
:103B880082EA0C0CC7F898C04B40C7F89C30D7E9BC
:103B9800262307F53061C1E9002307F52A63D3E935
:103BA8000023D143C7F8C015DB43C7F8C43507F66F
:103BB8009823D3E9002307F5B861D1E900018446C9
:103BC8000CEA020CC7F8B8C50B40C7F8BC3507F6B5
:103BD800A823D3E9002307F5B761D1E9000184469A
:103BE80082EA0C0CC7F890C04B40C7F89430D7E96C
:103BF800242307F6F821C1E9002307F69823D3E91F
:103C08000023D143C7F8B015DB43C7F8B43507F52F
:103C18002963D3E9002307F5B661D1E90001844699
:103C28000CEA020CC7F8A8C50B40C7F8AC3507F575
:103C38002A63D3E9002307F5B561D1E90001844679
:103C480082EA0C0CC7F888C04B40C7F88C30D7E91B
:103C5800222307F52F61C1E9002307F52963D3E97A
:103C68000023D143C7F8A015DB43C7F8A43507F5EF
:103C78002B63D3E9002307F5B461D1E90001844639
:103C88000CEA020CC7F898C50B40C7F89C3507F634
:103C98009823D3E9002307F5B361D1E900018446ED
:103CA80082EA0C0CC7F880C04B40C7F88430D7E9CB
:103CB800202307F6E821C1E9002307F52B63D3E9A0
:103CC8000023D143C7F89015DB43C7F8943507F6AE
:103CD800A823D3E9002307F5B261D1E9000184469E
:103CE8000CEA020CC7F888C50B40C7F88C3507F5F5
:103CF8002963D3E9002307F5B161D1E900018446BE
:103D080082EA0C0CC7F878C04B40FB67D7E91E2342
:103D180007F52E61C1E9002307F52563D3E9000102
:103D280007F67823D3E9002380EA020CC7F870C0AD
:103D38004B407B67D7E91C2307F52561C1E90023C0
:103D480007F68833A3F59A7007F68833A3F59C71B4
:103D580003689A070B689B081343BB660B689A07AE
:103D680003689B081343FB66D7E91A2307F52B6101
:103D7800C1E9002307F52263D3E9000107F52763AA
:103D8800D3E9002380EA020CC7F860C04B407B6689
:103D9800D7E9182307F52261C1E9002307F688331C
:103DA800A3F5B27007F68833A3F5B4710368DA0592
:103DB8000B685B0A1343BB650B68DA0503685B0A8B
:103DC8001343FB65D7E9162307F6A821C1E90023A9
:103DD80007F51F63D3E9000107F66823D3E9002339
:103DE80080EA020CC7F850C04B407B65D7E9142322
:103DF80007F51F61C1E9002307F68833A3F5CA70E8
:103E080007F68833A3F5CC710368DA010B685B0EFB
:103E18001343BB640B68DA0103685B0E1343FB644E
:103E2800D7E9122307F52A61C1E9002307F6E81349
:103E3800D3E9000107F68823D3E9002380EA020CBE
:103E4800C7F840C04B407B64D7E9102307F6E81158
:103E5800C1E9002307F68833A3F5CE7007F6883347
:103E6800A3F5D07103685A020B68DB0D1343BB63DB
:103E78000B685A020368DB0D1343FB63D7E90E2373
:103E880007F69821C1E9002307F6B813D3E9000122
:103E980007F52863D3E9002380EA020CC7F830C08D
:103EA8004B407B63D7E90C2307F6B811C1E900231F
:103EB80007F68833A3F5E87007F68833A3F5E671AB
:103EC80003689A0F0B689B001343FB620B689A0FF9
:103ED80003689B001343BB62D7E90A2307F52961EE
:103EE800C1E9002307F6A823D3E90023D143C7F883
:103EF8008015DB43C7F8843507F52A63D3E9002327
:103F080007F5B061D1E9000184460CEA020CC7F854
:103F180078C50B40C7F87C3507F52B63D3E9002338
:103F280007F5AF61D1E90001844682EA0C0CC7F8B5
:103F380020C04B407B62D7E9082307F6D821C1E9A6
:103F4800002307F52A63D3E90023D143C7F8701586
:103F5800DB43C7F8743507F69823D3E9002307F540
:103F6800AE61D1E9000184460CEA020CC7F868C5C5
:103F78000B40C7F86C3507F6A823D3E9002307F5EB
:103F8800AD61D1E90001844682EA0C0CC7F818C07B
:103F98004B40FB61D7E9062307F52D61C1E90023F2
:103FA80007F69823D3E90023D143C7F86015DB430C
:103FB800C7F8643507F52963D3E9002307F5AC6131
:103FC800D1E9000184460CEA020CC7F858C50B4039
:103FD800C7F85C3507F52A63D3E9002307F5AB6119
:103FE800D1E90001844682EA0C0CC7F810C04B40A6
:103FF8007B61D7E9042307F6C821C1E9002307F547
:104008002963D3E90023D143C7F85015DB43C7F828
:10401800543507F52B63D3E9002307F5AA61D1E9E5
:10402800000184460CEA020A01EA030B07F698230A
:10403800D3E9002382EA0A01B96083EA0B03FB6033
:10404800D7E9022307F52C61C1E9002307F52B63A3
:10405800D3E900236FEA02086FEA030907F6A823E9
:10406800D3E9002308EA020409EA030507F52963EE
:10407800D3E9002382EA040139606B407B60D7E909
:10408800002307F6B821C1E90023D7F8843B02339F
:10409800C7F8843BD7F8843B172B7DF7EBA807F6C6
:1040A8008833A3F5F673196807F67833D3E9002344
:1040B800C1E9002307F68833A3F5F6731B6803F1FB
:1040C800080107F53763D3E90023C1E9002307F6A0
:1040D8008833A3F5F6731B6803F1100107F66833FC
:1040E800D3E90023C1E9002307F68833A3F5F67363
:1040F8001B6803F1180107F53663D3E90023C1E90A
:10410800002307F68833A3F5F6731B6803F1200133
:1041180007F65833D3E90023C1E9002307F68833AB
:10412800A3F5F6731B6803F1280107F53563D3E996
:104138000023C1E9002307F68833A3F5F6731B684B
:1041480003F1300107F64833D3E90023C1E900231E
:1041580007F68833A3F5F6731B6803F1380107F5F2
:104168003463D3E90023C1E9002307F68833A3F5B4
:10417800F6731B6803F1400107F63833D3E90023CF
:10418800C1E9002307F68833A3F5F6731B6803F12A
:10419800480107F53363D3E90023C1E9002307F693
:1041A8008833A3F5F6731B6803F1500107F628332B
:1041B800D3E90023C1E9002307F68833A3F5F67392
:1041C8001B6803F1580107F53263D3E90023C1E9FD
:1041D800002307F68833A3F5F6731B6803F1600123
:1041E80007F61833D3E90023C1E9002307F688331B
:1041F800A3F5F6731B6803F1680107F53163D3E98A
:104208000023C1E9002307F68833A3F5F6731B687A
:1042180003F1700107F60833D3E90023C1E900234D
:1042280007F68833A3F5F6731B6803F1780107F5E1
:104238003063D3E90023C1E9002307F68833A3F5E7
:10424800F6731B6803F1800107F6F823D3E900230E
:10425800C1E9002307F68833A3F5F6731B6803F159
:10426800880107F52F63D3E90023C1E9002307F686
:104278008833A3F5F6731B6803F1900107F6E8236A
:10428800D3E90023C1E9002307F68833A3F5F673C1
:104298001B6803F1980107F52E63D3E90023C1E9F0
:1042A800002307F68833A3F5F6731B6803F1A00112
:1042B80007F6D823D3E90023C1E9002307F688339A
:1042C800A3F5F6731B6803F1A80107F52D63D3E97D
:1042D8000023C1E9002307F68833A3F5F6731B68AA
:1042E80003F1B00107F6C823D3E90023C1E900238D
:1042F80007F68833A3F5F6731B6803F1B80107F5D1
:104308002C63D3E90023C1E9002307F68833A3F51A
:10431800F6731B6803F1C00107F6B823D3E900233D
:10432800C1E9002300BF07F68C37BD46BDE8B00FD2
:10433800704700BF2DE9F043B9B000AFF860B9602D
:104348007A603B600023C7F8DC300FE0D7F8DC3038
:10435800DB00FA68D1184FF000024FF00003C1E902
:104368000023D7F8DC300133C7F8DC30D7F8DC306D
:10437800182BEBD934E00023C7F8DC301FE0D7F85E
:10438800DC30DB007A6813441846FCF7E7FDD7F801
:10439800DC30DB00FA681344D3E90023D7F8DC608B
:1043A800F600D7F80CC0664480EA020881EA0309DF
:1043B800C6E90089D7F8DC300133C7F8DC30BB68C0
:1043C800DB08D7F8DC209A42D9D3F868FCF730FE2E
:1043D8003A68BB68D31A3B607A68BB6813447B6051
:1043E8003A68BB689A42C6D20023C7F8DC300BE0B3
:1043F80007F11402D7F8DC30134400221A70D7F8FA
:10440800DC300133C7F8DC30D7F8DC20BB689A42CF
:10441800EED30023C7F8DC3010E07A68D7F8DC3038
:104428001344197807F11402D7F8DC3013440A460C
:104438001A70D7F8DC300133C7F8DC30D7F8DC2045
:104448003B689A42E9D307F11402D7F8DC301344E9
:1044580097F800211A70BB68013BE0333B4413F81E
:10446800CC2CBB68013B62F07F02D2B2E0333B4404
:1044780003F8CC2C0023C7F8DC3020E0D7F8DC3078
:10448800DB0007F1140213441846FCF767FDD7F860
:10449800DC30DB00FA681344D3E90023D7F8DC608A
:1044A800F600D7F80CC0664480EA020481EA0305E6
:1044B800C6E90045D7F8DC300133C7F8DC30BB6803
:1044C800DB08D7F8DC209A42D8D300BF00BFE43716
:1044D800BD46BDE8F08380B586B000AFF860B9602E
:1044E8007A603B6021E07868FCF7A2FD00237B61DD
:1044F8000FE07B69DB00FA68D1187B69DB007A681A
:104508001344D3E900230846FCF765FD7B690133B2
:104518007B613B68DB087A699A42EAD3FA683B68B0
:104528001344FB60BB68013BBB60BB68002BDAD15E
:1045380000BF00BF1837BD4680BD80B485B000AF4E
:1045480078600023FB600CE0FB68DB007A68D11818
:104558004FF000024FF00003C1E90023FB6801336C
:10456800FB60FB68182BEFD97B6803F1C8014FF09B
:1045780000024FF00003C1E9002300BF1437BD4615
:1045880080BC70472DE9B04FB0B000AFC7F8B40099
:10459800C7F8B010C7F8AC20C7F8A830D1E000239E
:1045A800C7F8BC3098E0D7F8B430C833D3E9002353
:1045B800D7F8BC100020C7F88010C7F88400D7E9E6
:1045C800208941465118B96749464B41FB674FF06E
:1045D80000024FF00003D7E91E894146CA08CC46BD
:1045E80042EA4C724946CB081346DA00D7F8B43091
:1045F8001344D3E90089D7F8AC20D7F8BC3013446A
:104608001B78DBB20022C7F8A030C7F8A420D7F87F
:10461800B430C833D3E90023D7F8BC100020C7F85A
:104628009810C7F89C00D7F8981051183967D7F830
:104638009C104B417B673B6F03F00703D900A1F146
:104648002003C1F12002D7F8A40000FA01F5D7F839
:10465800A00000FA03F31D43D7F8A03023FA02F2B2
:104668001543D7F8A03003FA01F4D7F8B430C833AB
:10467800D3E90023D7F8BC100020C7F89010C7F87A
:104688009400D7F890105118C7F88810D7F89410EC
:104698004B41C7F88C304FF000024FF00003D7F8B9
:1046A8008810CA08D7E922018C4642EA4C72CB0826
:1046B8001346DA00D7F8B430134488EA0402BA661D
:1046C80089EA0502FA66D7E91A12C3E90012D7F88F
:1046D800BC300133C7F8BC30D7F8B430C833D3E99D
:1046E8000023D7F8B0309A1AD7F8BC309342FFF4B9
:1046F8005AAFD7F8B430C833D3E90023D7F8B0306D
:10470800D21AD7F8A8301344C7F8A830D7F8B4306D
:10471800C833D3E90023D7F8B0309A1AD7F8AC30A9
:104728001344C7F8AC30D7F8B43003F1C8014FF0E0
:1047380000024FF00003C1E90023D7F8B400FCF7EA
:1047480077FCD7F8A83000223B667A66D7F8B430F1
:10475800C833D3E90023D7E9188941468918B965D0
:10476800494641EB0303FB65D7F8B03000223B65AF
:104778007A65D7E916018446D7E914239646F445A5
:1047880071EB0303BFF40BAF0023C7F8BC308FE015
:10479800D7F8B430C833D3E90023D7F8BC100020C9
:1047A800B964F864D7E91245214651183964294695
:1047B8004B417B644FF000024FF00003D7E91045EE
:1047C8002146CA08204629460C4642EA4472CB08CC
:1047D8001346DA00D7F8B4301344D3E90045D7F8C4
:1047E800AC20D7F8BC3013441B78DBB20022BB6383
:1047F800FA63D7F8B430C833D3E90023D7F8BC102C
:10480800002039637863D7E90C8941465118B962A9
:1048180049464B41FB62BB6A03F00703D900A1F18B
:104828002003C1F12002D7E90E89484600FA01FBAE
:10483800404600FA03F34BEA030B434623FA02F21D
:104848004BEA020B434603FA01FAD7F8B430C833EF
:10485800D3E90023D7F8BC10002039627862D7E981
:10486800088941465118B96149464B41FB614FF0EF
:1048780000024FF00003D7E906894146CA08CC4632
:1048880042EA4C724946CB081346DA00D7F8B430EE
:10489800134484EA0A023A6185EA0B027A61D7E98D
:1048A8000412C3E90012D7F8BC300133C7F8BC3092
:1048B800D7F8BC20D7F8A8309A42FFF469AFD7F8E8
:1048C800B430C833D3E90023D7F8A8100020B96062
:1048D800F860D7F8B410C831D7E902452046101857
:1048E8003860284643EB00007860D7E90034C1E916
:1048F800003400BFC037BD46BDE8B08F2DE9F00FCA
:104908008AB000AF786239621346FB777B6AC83396
:10491800D3E900014FF000024FF00003C20842EA59
:104928004172CB081346DB007A6A1344D3E90012BC
:10493800C7E90012FB7F00229A4693467B6AC83378
:10494800D3E90023134603F00703DA00A2F120019C
:10495800C2F120030BFA02F50AFA01F10D432AFA13
:1049680003F31D430AFA02F47B6AC833D3E9000152
:104978004FF000024FF00003C20842EA4172CB0830
:104988001346DB007A6A1344D7E9001208466040F0
:1049980038616A407A61D7E90412C3E900123B6AB8
:1049A800013BDB08DB007A6A1344D3E900453B6A24
:1049B800013B03F00703D9004FF080024FF00003DA
:1049C800A1F12006C1F1200003FA01F902FA06F666
:1049D80049EA060922FA00F049EA000902FA01F850
:1049E8003B6A013BDB08DB007A6A134484EA08026D
:1049F800BA6085EA0902FA60D7E90212C3E900122F
:104A08007B6A03F1C8014FF000024FF00003C1E9CF
:104A1800002300BF2837BD46BDE8F00F70472DE9D9
:104A2800B04F9EB000AFF866B9667A663B66002361
:104A38007B6770E03B6E00223B657A657B6EC8330E
:104A4800D3E90023D7E914010446A41ABC6461EB36
:104A58000303FB647B6F00223B647A64D7E9124549
:104A68002346D7E9100102469B18BB632B460A462A
:104A78005341FB634FF000024FF00003D7E90E45A6
:104A88002146CA08204629460C4642EA4472CB0809
:104A98001346DA007B6E1344D3E900453B6E0022CF
:104AA8003B637A637B6EC833D3E90023D7E90C01F3
:104AB8008446BCEB020CC7F858C061EB0303FB65E6
:104AC8007B6F0022BB62FA62BB6DD7E90A0102461E
:104AD8009B183B62FB6D0A4653417B623B6A03F0BD
:104AE8000703D900C1F12003A1F1200224FA01FA39
:104AF80005FA03F34AEA030A25FA02F24AEA020A25
:104B080025FA01FBFA6E7B6F1A445FFA8AF3137079
:104B18007B6F01337B677A6FBB6E9A420FD27B6FD4
:104B28000022BB61FA617B6EC833D3E90023D7E961
:104B380006010446944271EB0303FFF47BAFFA6E5F
:104B48007B6F1344FB66BA6E7B6FD31ABB667B6EB2
:104B5800C833D3E90023796F002039617861796E11
:104B6800C831D7E904452046101AB860284663EBD7
:104B78000003FB60D7E90234C1E9003445E0786EF0
:104B8800FCF756FA00237B6723E07B6FDB08DB002A
:104B98007A6E1344D3E90023796F01F00701C90045
:104BA800C1F12004A1F1200022FA01F803FA04F46B
:104BB80048EA040823FA00F048EA000823FA01F951
:104BC800FA6E7B6F13445FFA88F21A707B6F0133B9
:104BD8007B677A6FBB6E9A4203D27A6F3B6E9A42BA
:104BE800D3D3FA6E7B6F1344FB66BA6E7B6FD31A0E
:104BF800BB663A6E7B6FD21A7B6EC83300213A606F
:104C08007960D7E90012C3E90012BB6E002BB6D158
:104C180000BF00BF7837BD46BDE8B08F80B582B011
:104C280000AF7860D020FBF745FB03461A467B6847
:104C38001A607B681B68002B02D16F20FBF7F0FA23
:104C48007B681B681846FFF778FC00BF0837BD462D
:104C580080BD80B584B000AFF860B9607A60FB6849
:104C680018687B68BA688821FFF78CFC00BF10378A
:104C7800BD4680BD80B582B000AF78607B681B6898
:104C88001F2288211846FFF739FE00BF0837BD46A6
:104C980080BD80B584B000AFF860B9607A607B6889
:104CA8001A688823B968F868FFF7B9FE00BF10379B
:104CB800BD4680BD80B582B000AF78607B681B6858
:104CC8001846FBF7FFFA00BF0837BD4680BD80B520
:104CD80086B002AFF860B9607A60C820FBF7EAFADC
:104CE80003461A46FB681A60FB681B68002B02D152
:104CF8006F20FBF795FAFB6818681F2300937B6801
:104D0800BA68A821FFF716FB00BF1037BD4680BD63
:104D180080B584B000AFF860B9607A607B681A68C3
:104D2800A823B968F868FFF7D6FB00BF1037BD465F
:104D380080BD80B582B000AF78607B681B6818467C
:104D4800FBF7C0FA00BF0837BD4680BD80B586B006
:104D580002AFF860B9607A60C820FBF7ABFA034687
:104D68001A46FB681A60FB681B68002B02D16F208B
:104D7800FBF756FAFB6818681F2300937B68BA682C
:104D88008821FFF7D7FA00BF1037BD4680BD80B530
:104D980084B000AFF860B9607A607B681A688823CD
:104DA800B968F868FFF797FB00BF1037BD4680BDAC
:104DB80080B582B000AF78607B681B681846FBF747
:104DC80081FA00BF0837BD4680BD000080B5AAB093
:104DD80000AFF860B9607A603B60BB682A4AA2FB02
:104DE8000323DB09C7F8A03007F114033A68796890
:104DF8001846FFF7ABFF07F114031A46D7F8A010BF
:104E0800F868FFF7C4FFD7F8A02013461B01134426
:104E1800DB001A46FB681344FB60D7F8A020134652
:104E28001B011344DB001A46BB689B1ABB60BB68B6
:104E3800002B20D007F1140207F1180301211846AE
:104E4800FFF7A5FF0023C7F8A4300FE0FA68D7F8EA
:104E5800A430134407F11801D7F8A4200A441278A3
:104E68001A70D7F8A4300133C7F8A430D7F8A420B3
:104E7800BB689A42EAD307F114031846FFF798FF74
:104E880000BFA837BD4680BDF1F0F0F080B5DCB0BA
:104E980002AF07F5B473A3F5AE73186007F5B473E2
:104EA800A3F5B073196007F5B473A3F5B2731A606C
:104EB80007F5B473A3F5B27307F5B472A2F5B0722F
:104EC80007F19800062100911B6812688821FFF7F6
:104ED80031FA07F1980207F1100088230121FFF742
:104EE800FAFA0023C7F8643115E007F5B473A3F59F
:104EF800AE731A68D7F86431134407F5B472A2F593
:104F0800AC71D7F864210A4412781A70D7F8643162
:104F18000133C7F86431D7F864311F2BE5D900BFD6
:104F280000BF07F5B477BD4680BD80B5CCB002AFF1
:104F380007F59473A3F58E73186007F59473A3F5BA
:104F48009073196007F59473A3F592731A6007F5C7
:104F58009473A3F5927307F59472A2F5907207F112
:104F68005800062100911B6812684821FFF7E2F9F2
:104F780007F1580207F1100048230121FFF7ABFAA7
:104F88000023C7F8243115E007F59473A3F58E7351
:104F98001A68D7F82431134407F59472A2F58C7176
:104FA800D7F824210A4412781A70D7F8243101332B
:104FB800C7F82431D7F824313F2BE5D900BF00BF0B
:104FC80007F59477BD4680BD80B584B000AFF86022
:104FD800B9607A60B968F86801F087FBFB6803F587
:104FE8004073202279681846FBF71EFC00BF103773
:104FF800BD4680BD80B584B000AFF860B9607A6006
:105008007968F86801F093FB7B6803F54073202208
:105018001946B868FBF708FC00BF1037BD4680BDCD
:1050280080B582B000AF786039603968786801F07F
:105038005CFB00BF0837BD4680BD80B582B000AFBD
:10504800786039603968786801F071FB00BF08370B
:10505800BD4680BD80B584B000AFF860B9607A60A5
:10506800B968F86801F01EFAFB6803F520737968DF
:10507800184600F0FDFE00BF1037BD4680BD80B564
:1050880084B000AFF860B9607A607968F86801F0B8
:10509800AFFA7B6803F520731946B86800F060FF23
:1050A80000BF1037BD4680BD80B489B000AFF8603E
:1050B800B9607A603B600023BB61BB69FB6147E074
:1050C8007A68BB6913441B781AB2BB6901337968E3
:1050D8000B441B781B021BB213431BB29BB2C3F3D6
:1050E8000B03FB82BB6901337A6813441B781B09E5
:1050F800DBB21AB2BB69023379680B441B781B0117
:105108001BB213431BB29BB2C3F30B03BB82BB6935
:105118000333BB61FB8AB3F5506F08D8FB695A1C8F
:10512800FA615B00FA681344B7F916201A80FA6925
:10513800BB689A420CD2BB8AB3F5506F08D8FB699A
:105148005A1CFA615B00FA681344B7F914201A80F4
:10515800FA69BB689A4204D2BB6903333A689A4237
:10516800AED2FB6918462437BD4680BC70470000A4
:1051780080B5ADF50A7D00AF07F50A73A3F507738F
:10518800186007F50A73A3F50873196007F50A7321
:10519800A3F509731A600023C7F82032C7E000237B
:1051A800C7F81C32B9E007F50A73A3F509731B6841
:1051B800002B0FD0D7F82032DAB2D7F81C32DBB286
:1051C80007F50A71A1F5087107F11000096801F0E7
:1051D800EEFB0EE0D7F81C32DAB2D7F82032DBB299
:1051E80007F50A71A1F5087107F11000096801F0C7
:1051F800DEFB07F1100207F1140303211846FFF73D
:1052080087FD4FF4FC73C7F81432D7F820329B029D
:1052180007F50A72A2F5077212681A44D7F81C3209
:105228005B02D01807F11402D7F814324FF48071DA
:10523800FFF73AFFC7F8240261E0D7F81422414B80
:10524800A3FB021359080B465B000B44D31AC7F89B
:1052580010320023C7F818321AE0D7F81422D7F80A
:105268001032D21AD7F81832134407F50A72A2F589
:105278000572D15C07F50A73A3F50572D7F81832E1
:1052880013440A461A70D7F818320133C7F818328F
:10529800D7F81822D7F810329A42DED307F1140251
:1052A800D7F81032134407F1100201211846FFF70E
:1052B8002FFDD7F81032A833C7F81432D7F82032A8
:1052C8009B0207F50A72A2F5077212681A44D7F80A
:1052D8001C325B021A44D7F824325B00D018D7F886
:1052E8002432C3F5807107F11402D7F81432FFF79E
:1052F800DBFE0246D7F824321344C7F82432D7F825
:105308002432FF2B99D907F110031846FFF711FD36
:10531800D7F81C320133C7F81C32D7F81C32012BDE
:105328007FF641AFD7F820320133C7F82032D7F8DB
:105338002032012B7FF633AF00BF00BF07F50A7795
:10534800BD4680BDABAAAAAA80B5ADF5A35D00AFE6
:1053580007F58C63A3F25443186007F58C63A3F533
:105368008B63196007F58C63A3F25C431A6007F539
:10537800A05303F1100307F5A25202F114021360BF
:1053880007F5A05303F11003203307F5A25202F1E9
:1053980010021360002307F5A25202F11B021370DA
:1053A80007F58C63A3F25C4307F5A05000F11000E9
:1053B80020221968FFF7B9FD07F54163002207F5B8
:1053C800A25101F1140109681846FFF7D1FE002324
:1053D80007F5A25202F11C02136027E007F120032F
:1053E800103B07F5A25202F11C02126852029818EB
:1053F80007F5A25303F11B031B785A1C07F5A251AA
:1054080001F11B010A701A4607F5A25303F11003B4
:10541800196800F01FFF07F5A25303F11C031B686E
:10542800013307F5A25202F11C02136007F5A253DB
:1054380003F11C031B68012BD0D9002307F5A252E6
:1054480002F11C02136026E007F5016207F5A2537A
:1054580003F11C031B685B02D01807F5A25303F184
:105468001B031B785A1C07F5A25101F11B010A7096
:105478001A4607F5A25303F11003196800F0EAFE73
:1054880007F5A25303F11C031B68013307F5A25269
:1054980002F11C02136007F5A25303F11C031B68F9
:1054A800012BD1D907F12003103B184601F061F90F
:1054B80007F50163184601F05CF9002307F5A252CD
:1054C80002F11C02136030E007F58463103B07F516
:1054D800A25202F11C0212685202981807F54162A2
:1054E80007F5A25303F11C031B689B02D11807F1AF
:1054F8002003103B1A4601F06EF907F58463103B50
:1055080007F5A25202F11C0212685202134418460F
:1055180000F036FF07F5A25303F11C031B680133A3
:1055280007F5A25202F11C02136007F5A25303F11A
:105538001C031B68012BC7D907F5016207F58461B5
:10554800103907F58463103B184601F0BFF907F5D9
:105558008463103B184601F0A0F907F12003103BC3
:1055680007F58C62A2F58B6219461068FFF758FDA3
:1055780007F58463103B07F58C62A2F2544007F5E7
:10558800A25202F11402126819460068FFF71CFDC6
:1055980000BF07F5A357BD4680BD90B5ADF5F15DD9
:1055A80087B000AF07F63864A4F62C64206007F6CD
:1055B8003860A0F56360016007F63861A1F63461D0
:1055C8000A6007F63862A2F638621360002307F50E
:1055D800F15202F11302137007F63863A3F634632D
:1055E80007F5F05101F1100107F5B05000F1100076
:1055F8001A68FFF7FFFC07F63863A3F5636207F53F
:105608000673083B1168184600F093FD07F5F05142
:1056180001F1100107F61823083B01221846FFF78D
:10562800A7FD002307F5F15202F11402136028E0E8
:1056380007F5F15303F114031B685B0207F5D05219
:1056480002F11002D01807F5F15303F113031B7888
:105658005A1C07F5F15101F113010A7007F6386277
:10566800A2F638611A46096800F0F4FD07F5F1530F
:1056780003F114031B68013307F5F15202F1140218
:10568800136007F5F15303F114031B68012BCFD9FD
:10569800002307F5F15202F11402136028E007F520
:1056A800F15303F114031B685B0207F5905202F1F2
:1056B8001002D01807F5F15303F113031B785A1C95
:1056C80007F5F15101F113010A7007F63862A2F6E5
:1056D80038611A46096800F0D5FD07F5F15303F162
:1056E80014031B68013307F5F15202F11402136029
:1056F80007F5F15303F114031B68012BCFD907F504
:10570800F15303F113031A78531C07F5F15101F112
:1057180013010B7007F63863A3F6386107F1180315
:10572800083B0968184600F0ADFD07F5D05303F1B2
:105738001003184601F01DF8002307F5F15202F195
:105748001402136025E007F5C363083B07F5F1521F
:1057580002F1140212685202981807F61823083B3F
:1057680007F5F15202F1140212689202134407F588
:10577800D05202F11002194601F02DF807F5F15345
:1057880003F114031B68013307F5F15202F1140207
:10579800136007F5F15303F114031B68012BD2D9E9
:1057A80007F5D05202F1100207F5B05101F11001CE
:1057B80007F58363083B184601F00DF807F5C36346
:1057C800083B184600F0EEFF07F58363083B1846D0
:1057D80000F07FFD07F5905202F1100207F5C36152
:1057E800083907F5C363083B184601F06FF807F15D
:1057F8001802083A07F58361083907F58363083BFF
:10580800184600F003FE07F50672083A07F58361AB
:10581800083907F58363083B184600F0F7FD07F5DC
:10582800C363083B184601F038F807F58363083B63
:10583800184600F0CCFD07F58362083A07F5C36304
:10584800083B07F63861A1F62C6019460068FFF797
:1058580001FC00BF07F5F1571C37BD4690BD80B568
:10586800ADF5416D00AF07F54163A3F60443186039
:1058780007F54163A3F60843196007F54163A3F6EA
:105888000C431A6007F54163A3F6084307F5047152
:1058980007F501601A68FFF7F2FB07F54163A3F605
:1058A8000C4307F5826219681046FFF7C6FB07F537
:1058B8000163184600F05DFF01F0C2FC07F50162C4
:1058C80007F5826107F11003184600F084FF01F024
:1058D800C3FC07F11003184600F0FBFC07F11002A7
:1058E80007F5047107F11003184600F0B5FD07F13C
:1058F8001003184600F06BFD07F1100207F541632D
:10590800A3F604431146186800F04CFC00BF07F5E5
:105918004167BD4680BD80B584B000AFF860B9600E
:105928007A607A68B968F868FFF70EFDBB6803F516
:1059380040734FF44872F9681846FAF775FFBB6868
:1059480003F5C4634FF44872F9681846FFF79EFAE6
:10595800BB6803F5C8607B68203320221946FAF734
:1059680063FF002318461037BD4680BD80B5A4B03C
:1059780000AFF860B9607A603B6007F150032022FD
:1059880039681846FAF750FF07F1500320334FF4EF
:10599800487279681846FFF779FA07F1500107F15C
:1059A800100340221846FFF7C0FA07F1100320330E
:1059B80007F150017A68F868FFF7EFFD07F1100367
:1059C80020221946B868FAF72FFF002318469037A7
:1059D800BD4680BD80B5ADF56E7D00AF07F56E7331
:1059E800A3F56B73186007F56E73A3F56C731960F4
:1059F80007F56E73A3F56D731A6007F56E73A3F55B
:105A08006D731B6803F54073C7F8B43307F56E73FD
:105A1800A3F56D7207F56E73A3F56C7307F55C70EB
:105A280012681968FFF71BFF07F55C73203307F549
:105A38006E72A2F56D72126802F5C46120221846D2
:105A4800FAF7F2FE07F55C7107F54C734022184629
:105A5800FFF76BFA07F54C73203307F55C7107F114
:105A68001000D7F8B423FFF798FD07F1100107F5E8
:105A78006E73A3F56C734FF44072186801F005F863
:105A8800C7F8B00307F56E73A3F56D731B6803F5CC
:105A9800C86107F56E73A3F56C7207F56E73A3F50D
:105AA8006B731268186800F0C1FFD7F8B033DBB227
:105AB800C3F10103DBB207F54C7107F56E72A2F56D
:105AC8006B702022006801F017F80023184607F5CC
